{
	"contracts/FundMe.sol": {
		"FundMe": {
			"abi": [
				{
					"inputs": [],
					"stateMutability": "nonpayable",
					"type": "constructor"
				},
				{
					"inputs": [],
					"name": "Withdraw",
					"outputs": [],
					"stateMutability": "nonpayable",
					"type": "function"
				},
				{
					"inputs": [
						{
							"internalType": "address",
							"name": "",
							"type": "address"
						}
					],
					"name": "addressToAmountFunded",
					"outputs": [
						{
							"internalType": "uint256",
							"name": "",
							"type": "uint256"
						}
					],
					"stateMutability": "view",
					"type": "function"
				},
				{
					"inputs": [],
					"name": "fund",
					"outputs": [],
					"stateMutability": "payable",
					"type": "function"
				},
				{
					"inputs": [
						{
							"internalType": "uint256",
							"name": "",
							"type": "uint256"
						}
					],
					"name": "funders",
					"outputs": [
						{
							"internalType": "address",
							"name": "",
							"type": "address"
						}
					],
					"stateMutability": "view",
					"type": "function"
				},
				{
					"inputs": [],
					"name": "minimumUsd",
					"outputs": [
						{
							"internalType": "uint256",
							"name": "",
							"type": "uint256"
						}
					],
					"stateMutability": "view",
					"type": "function"
				},
				{
					"inputs": [],
					"name": "owner",
					"outputs": [
						{
							"internalType": "address",
							"name": "",
							"type": "address"
						}
					],
					"stateMutability": "view",
					"type": "function"
				}
			],
			"devdoc": {
				"kind": "dev",
				"methods": {},
				"version": 1
			},
			"evm": {
				"assembly": "    /* \"contracts/FundMe.sol\":174:1941  contract FundMe {... */\n  mstore(0x40, 0x80)\n    /* \"contracts/FundMe.sol\":264:273  50 * 1e18 */\n  0x02b5e3af16b1880000\n    /* \"contracts/FundMe.sol\":236:273  uint256 public minimumUsd = 50 * 1e18 */\n  0x00\n  sstore\n    /* \"contracts/FundMe.sol\":400:448  constructor(){... */\n  callvalue\n  dup1\n  iszero\n  tag_1\n  jumpi\n  0x00\n  dup1\n  revert\ntag_1:\n  pop\n    /* \"contracts/FundMe.sol\":431:441  msg.sender */\n  caller\n    /* \"contracts/FundMe.sol\":423:428  owner */\n  0x03\n  0x00\n    /* \"contracts/FundMe.sol\":423:441  owner = msg.sender */\n  0x0100\n  exp\n  dup2\n  sload\n  dup2\n  0xffffffffffffffffffffffffffffffffffffffff\n  mul\n  not\n  and\n  swap1\n  dup4\n  0xffffffffffffffffffffffffffffffffffffffff\n  and\n  mul\n  or\n  swap1\n  sstore\n  pop\n    /* \"contracts/FundMe.sol\":174:1941  contract FundMe {... */\n  dataSize(sub_0)\n  dup1\n  dataOffset(sub_0)\n  0x00\n  codecopy\n  0x00\n  return\nstop\n\nsub_0: assembly {\n        /* \"contracts/FundMe.sol\":174:1941  contract FundMe {... */\n      mstore(0x40, 0x80)\n      jumpi(tag_1, lt(calldatasize, 0x04))\n      shr(0xe0, calldataload(0x00))\n      dup1\n      0x098de820\n      eq\n      tag_2\n      jumpi\n      dup1\n      0x3e47d6f3\n      eq\n      tag_3\n      jumpi\n      dup1\n      0x57ea89b6\n      eq\n      tag_4\n      jumpi\n      dup1\n      0x8da5cb5b\n      eq\n      tag_5\n      jumpi\n      dup1\n      0xb60d4288\n      eq\n      tag_6\n      jumpi\n      dup1\n      0xdc0d3dff\n      eq\n      tag_7\n      jumpi\n    tag_1:\n      0x00\n      dup1\n      revert\n        /* \"contracts/FundMe.sol\":236:273  uint256 public minimumUsd = 50 * 1e18 */\n    tag_2:\n      callvalue\n      dup1\n      iszero\n      tag_8\n      jumpi\n      0x00\n      dup1\n      revert\n    tag_8:\n      pop\n      tag_9\n      tag_10\n      jump\t// in\n    tag_9:\n      mload(0x40)\n      tag_11\n      swap2\n      swap1\n      tag_12\n      jump\t// in\n    tag_11:\n      mload(0x40)\n      dup1\n      swap2\n      sub\n      swap1\n      return\n        /* \"contracts/FundMe.sol\":310:366  mapping(address => uint256) public addressToAmountFunded */\n    tag_3:\n      callvalue\n      dup1\n      iszero\n      tag_13\n      jumpi\n      0x00\n      dup1\n      revert\n    tag_13:\n      pop\n      tag_14\n      0x04\n      dup1\n      calldatasize\n      sub\n      dup2\n      add\n      swap1\n      tag_15\n      swap2\n      swap1\n      tag_16\n      jump\t// in\n    tag_15:\n      tag_17\n      jump\t// in\n    tag_14:\n      mload(0x40)\n      tag_18\n      swap2\n      swap1\n      tag_12\n      jump\t// in\n    tag_18:\n      mload(0x40)\n      dup1\n      swap2\n      sub\n      swap1\n      return\n        /* \"contracts/FundMe.sol\":861:1834  function Withdraw() public onlyOwner{... */\n    tag_4:\n      callvalue\n      dup1\n      iszero\n      tag_19\n      jumpi\n      0x00\n      dup1\n      revert\n    tag_19:\n      pop\n      tag_20\n      tag_21\n      jump\t// in\n    tag_20:\n      stop\n        /* \"contracts/FundMe.sol\":373:393  address public owner */\n    tag_5:\n      callvalue\n      dup1\n      iszero\n      tag_22\n      jumpi\n      0x00\n      dup1\n      revert\n    tag_22:\n      pop\n      tag_23\n      tag_24\n      jump\t// in\n    tag_23:\n      mload(0x40)\n      tag_25\n      swap2\n      swap1\n      tag_26\n      jump\t// in\n    tag_25:\n      mload(0x40)\n      dup1\n      swap2\n      sub\n      swap1\n      return\n        /* \"contracts/FundMe.sol\":454:855  function fund() public payable{... */\n    tag_6:\n      tag_27\n      tag_28\n      jump\t// in\n    tag_27:\n      stop\n        /* \"contracts/FundMe.sol\":280:304  address[] public funders */\n    tag_7:\n      callvalue\n      dup1\n      iszero\n      tag_29\n      jumpi\n      0x00\n      dup1\n      revert\n    tag_29:\n      pop\n      tag_30\n      0x04\n      dup1\n      calldatasize\n      sub\n      dup2\n      add\n      swap1\n      tag_31\n      swap2\n      swap1\n      tag_32\n      jump\t// in\n    tag_31:\n      tag_33\n      jump\t// in\n    tag_30:\n      mload(0x40)\n      tag_34\n      swap2\n      swap1\n      tag_26\n      jump\t// in\n    tag_34:\n      mload(0x40)\n      dup1\n      swap2\n      sub\n      swap1\n      return\n        /* \"contracts/FundMe.sol\":236:273  uint256 public minimumUsd = 50 * 1e18 */\n    tag_10:\n      sload(0x00)\n      dup2\n      jump\t// out\n        /* \"contracts/FundMe.sol\":310:366  mapping(address => uint256) public addressToAmountFunded */\n    tag_17:\n      mstore(0x20, 0x02)\n      dup1\n      0x00\n      mstore\n      keccak256(0x00, 0x40)\n      0x00\n      swap2\n      pop\n      swap1\n      pop\n      sload\n      dup2\n      jump\t// out\n        /* \"contracts/FundMe.sol\":861:1834  function Withdraw() public onlyOwner{... */\n    tag_21:\n        /* \"contracts/FundMe.sol\":1892:1897  owner */\n      0x03\n      0x00\n      swap1\n      sload\n      swap1\n      0x0100\n      exp\n      swap1\n      div\n      0xffffffffffffffffffffffffffffffffffffffff\n      and\n        /* \"contracts/FundMe.sol\":1878:1897  msg.sender == owner */\n      0xffffffffffffffffffffffffffffffffffffffff\n      and\n        /* \"contracts/FundMe.sol\":1878:1888  msg.sender */\n      caller\n        /* \"contracts/FundMe.sol\":1878:1897  msg.sender == owner */\n      0xffffffffffffffffffffffffffffffffffffffff\n      and\n      eq\n        /* \"contracts/FundMe.sol\":1870:1921  require(msg.sender == owner, \"Sender is not owner\") */\n      tag_36\n      jumpi\n      mload(0x40)\n      0x08c379a000000000000000000000000000000000000000000000000000000000\n      dup2\n      mstore\n      0x04\n      add\n      tag_37\n      swap1\n      tag_38\n      jump\t// in\n    tag_37:\n      mload(0x40)\n      dup1\n      swap2\n      sub\n      swap1\n      revert\n    tag_36:\n        /* \"contracts/FundMe.sol\":967:986  uint256 funderIndex */\n      0x00\n        /* \"contracts/FundMe.sol\":963:1146  for(uint256 funderIndex = 0; funderIndex < funders.length; funderIndex++) {... */\n    tag_40:\n        /* \"contracts/FundMe.sol\":1006:1013  funders */\n      0x01\n        /* \"contracts/FundMe.sol\":1006:1020  funders.length */\n      dup1\n      sload\n      swap1\n      pop\n        /* \"contracts/FundMe.sol\":992:1003  funderIndex */\n      dup2\n        /* \"contracts/FundMe.sol\":992:1020  funderIndex < funders.length */\n      lt\n        /* \"contracts/FundMe.sol\":963:1146  for(uint256 funderIndex = 0; funderIndex < funders.length; funderIndex++) {... */\n      iszero\n      tag_41\n      jumpi\n        /* \"contracts/FundMe.sol\":1051:1065  address funder */\n      0x00\n        /* \"contracts/FundMe.sol\":1068:1075  funders */\n      0x01\n        /* \"contracts/FundMe.sol\":1076:1087  funderIndex */\n      dup3\n        /* \"contracts/FundMe.sol\":1068:1088  funders[funderIndex] */\n      dup2\n      sload\n      dup2\n      lt\n      tag_43\n      jumpi\n      tag_44\n      tag_45\n      jump\t// in\n    tag_44:\n    tag_43:\n      swap1\n      0x00\n      mstore\n      keccak256(0x00, 0x20)\n      add\n      0x00\n      swap1\n      sload\n      swap1\n      0x0100\n      exp\n      swap1\n      div\n      0xffffffffffffffffffffffffffffffffffffffff\n      and\n        /* \"contracts/FundMe.sol\":1051:1088  address funder = funders[funderIndex] */\n      swap1\n      pop\n        /* \"contracts/FundMe.sol\":1134:1135  0 */\n      0x00\n        /* \"contracts/FundMe.sol\":1102:1123  addressToAmountFunded */\n      0x02\n        /* \"contracts/FundMe.sol\":1102:1131  addressToAmountFunded[funder] */\n      0x00\n        /* \"contracts/FundMe.sol\":1124:1130  funder */\n      dup4\n        /* \"contracts/FundMe.sol\":1102:1131  addressToAmountFunded[funder] */\n      0xffffffffffffffffffffffffffffffffffffffff\n      and\n      0xffffffffffffffffffffffffffffffffffffffff\n      and\n      dup2\n      mstore\n      0x20\n      add\n      swap1\n      dup2\n      mstore\n      0x20\n      add\n      0x00\n      keccak256\n        /* \"contracts/FundMe.sol\":1102:1135  addressToAmountFunded[funder] = 0 */\n      dup2\n      swap1\n      sstore\n      pop\n        /* \"contracts/FundMe.sol\":1037:1146  {... */\n      pop\n        /* \"contracts/FundMe.sol\":1022:1035  funderIndex++ */\n      dup1\n      dup1\n      tag_47\n      swap1\n      tag_48\n      jump\t// in\n    tag_47:\n      swap2\n      pop\n      pop\n        /* \"contracts/FundMe.sol\":963:1146  for(uint256 funderIndex = 0; funderIndex < funders.length; funderIndex++) {... */\n      jump(tag_40)\n    tag_41:\n      pop\n        /* \"contracts/FundMe.sol\":1206:1207  0 */\n      0x00\n        /* \"contracts/FundMe.sol\":1191:1208  new address[] (0) */\n      0xffffffffffffffff\n      dup2\n      gt\n      iszero\n      tag_49\n      jumpi\n      tag_50\n      tag_51\n      jump\t// in\n    tag_50:\n    tag_49:\n      mload(0x40)\n      swap1\n      dup1\n      dup3\n      mstore\n      dup1\n      0x20\n      mul\n      0x20\n      add\n      dup3\n      add\n      0x40\n      mstore\n      dup1\n      iszero\n      tag_52\n      jumpi\n      dup2\n      0x20\n      add\n      0x20\n      dup3\n      mul\n      dup1\n      calldatasize\n      dup4\n      calldatacopy\n      dup1\n      dup3\n      add\n      swap2\n      pop\n      pop\n      swap1\n      pop\n    tag_52:\n      pop\n        /* \"contracts/FundMe.sol\":1181:1188  funders */\n      0x01\n        /* \"contracts/FundMe.sol\":1181:1208  funders = new address[] (0) */\n      swap1\n      dup1\n      mload\n      swap1\n      0x20\n      add\n      swap1\n      tag_53\n      swap3\n      swap2\n      swap1\n      tag_54\n      jump\t// in\n    tag_53:\n      pop\n        /* \"contracts/FundMe.sol\":1702:1718  bool callSuccess */\n      0x00\n        /* \"contracts/FundMe.sol\":1731:1741  msg.sender */\n      caller\n        /* \"contracts/FundMe.sol\":1723:1747  payable(msg.sender).call */\n      0xffffffffffffffffffffffffffffffffffffffff\n      and\n        /* \"contracts/FundMe.sol\":1755:1776  address(this).balance */\n      selfbalance\n        /* \"contracts/FundMe.sol\":1723:1781  payable(msg.sender).call{value: address(this).balance}(\"\") */\n      mload(0x40)\n      tag_55\n      swap1\n      tag_56\n      jump\t// in\n    tag_55:\n      0x00\n      mload(0x40)\n      dup1\n      dup4\n      sub\n      dup2\n      dup6\n      dup8\n      gas\n      call\n      swap3\n      pop\n      pop\n      pop\n      returndatasize\n      dup1\n      0x00\n      dup2\n      eq\n      tag_59\n      jumpi\n      mload(0x40)\n      swap2\n      pop\n      and(add(returndatasize, 0x3f), not(0x1f))\n      dup3\n      add\n      0x40\n      mstore\n      returndatasize\n      dup3\n      mstore\n      returndatasize\n      0x00\n      0x20\n      dup5\n      add\n      returndatacopy\n      jump(tag_58)\n    tag_59:\n      0x60\n      swap2\n      pop\n    tag_58:\n      pop\n        /* \"contracts/FundMe.sol\":1701:1781  (bool callSuccess,) = payable(msg.sender).call{value: address(this).balance}(\"\") */\n      pop\n      swap1\n      pop\n        /* \"contracts/FundMe.sol\":1799:1810  callSuccess */\n      dup1\n        /* \"contracts/FundMe.sol\":1791:1827  require(callSuccess, \"Call Failed!\") */\n      tag_60\n      jumpi\n      mload(0x40)\n      0x08c379a000000000000000000000000000000000000000000000000000000000\n      dup2\n      mstore\n      0x04\n      add\n      tag_61\n      swap1\n      tag_62\n      jump\t// in\n    tag_61:\n      mload(0x40)\n      dup1\n      swap2\n      sub\n      swap1\n      revert\n    tag_60:\n        /* \"contracts/FundMe.sol\":897:1834  {... */\n      pop\n        /* \"contracts/FundMe.sol\":861:1834  function Withdraw() public onlyOwner{... */\n      jump\t// out\n        /* \"contracts/FundMe.sol\":373:393  address public owner */\n    tag_24:\n      0x03\n      0x00\n      swap1\n      sload\n      swap1\n      0x0100\n      exp\n      swap1\n      div\n      0xffffffffffffffffffffffffffffffffffffffff\n      and\n      dup2\n      jump\t// out\n        /* \"contracts/FundMe.sol\":454:855  function fund() public payable{... */\n    tag_28:\n        /* \"contracts/FundMe.sol\":647:657  minimumUsd */\n      sload(0x00)\n        /* \"contracts/FundMe.sol\":614:643  msg.value.getConversionRate() */\n      tag_64\n        /* \"contracts/FundMe.sol\":614:623  msg.value */\n      callvalue\n        /* \"contracts/FundMe.sol\":614:641  msg.value.getConversionRate */\n      tag_65\n        /* \"contracts/FundMe.sol\":614:643  msg.value.getConversionRate() */\n      jump\t// in\n    tag_64:\n        /* \"contracts/FundMe.sol\":614:657  msg.value.getConversionRate() >= minimumUsd */\n      lt\n      iszero\n        /* \"contracts/FundMe.sol\":605:681  require( msg.value.getConversionRate() >= minimumUsd, \"Didn't send enough!\") */\n      tag_66\n      jumpi\n      mload(0x40)\n      0x08c379a000000000000000000000000000000000000000000000000000000000\n      dup2\n      mstore\n      0x04\n      add\n      tag_67\n      swap1\n      tag_68\n      jump\t// in\n    tag_67:\n      mload(0x40)\n      dup1\n      swap2\n      sub\n      swap1\n      revert\n    tag_66:\n        /* \"contracts/FundMe.sol\":769:776  funders */\n      0x01\n        /* \"contracts/FundMe.sol\":782:792  msg.sender */\n      caller\n        /* \"contracts/FundMe.sol\":769:793  funders.push(msg.sender) */\n      swap1\n      dup1\n      0x01\n      dup2\n      sload\n      add\n      dup1\n      dup3\n      sstore\n      dup1\n      swap2\n      pop\n      pop\n      0x01\n      swap1\n      sub\n      swap1\n      0x00\n      mstore\n      keccak256(0x00, 0x20)\n      add\n      0x00\n      swap1\n      swap2\n      swap1\n      swap2\n      swap1\n      swap2\n      0x0100\n      exp\n      dup2\n      sload\n      dup2\n      0xffffffffffffffffffffffffffffffffffffffff\n      mul\n      not\n      and\n      swap1\n      dup4\n      0xffffffffffffffffffffffffffffffffffffffff\n      and\n      mul\n      or\n      swap1\n      sstore\n      pop\n        /* \"contracts/FundMe.sol\":839:848  msg.value */\n      callvalue\n        /* \"contracts/FundMe.sol\":803:824  addressToAmountFunded */\n      0x02\n        /* \"contracts/FundMe.sol\":803:836  addressToAmountFunded[msg.sender] */\n      0x00\n        /* \"contracts/FundMe.sol\":825:835  msg.sender */\n      caller\n        /* \"contracts/FundMe.sol\":803:836  addressToAmountFunded[msg.sender] */\n      0xffffffffffffffffffffffffffffffffffffffff\n      and\n      0xffffffffffffffffffffffffffffffffffffffff\n      and\n      dup2\n      mstore\n      0x20\n      add\n      swap1\n      dup2\n      mstore\n      0x20\n      add\n      0x00\n      keccak256\n        /* \"contracts/FundMe.sol\":803:848  addressToAmountFunded[msg.sender] = msg.value */\n      dup2\n      swap1\n      sstore\n      pop\n        /* \"contracts/FundMe.sol\":454:855  function fund() public payable{... */\n      jump\t// out\n        /* \"contracts/FundMe.sol\":280:304  address[] public funders */\n    tag_33:\n      0x01\n      dup2\n      dup2\n      sload\n      dup2\n      lt\n      tag_70\n      jumpi\n      0x00\n      dup1\n      revert\n    tag_70:\n      swap1\n      0x00\n      mstore\n      keccak256(0x00, 0x20)\n      add\n      0x00\n      swap2\n      pop\n      sload\n      swap1\n      0x0100\n      exp\n      swap1\n      div\n      0xffffffffffffffffffffffffffffffffffffffff\n      and\n      dup2\n      jump\t// out\n        /* \"contracts/PriceConverter.sol\":1047:1266  function getConversionRate(uint256 ethAmount) internal view returns (uint256) {... */\n    tag_65:\n        /* \"contracts/PriceConverter.sol\":1116:1123  uint256 */\n      0x00\n        /* \"contracts/PriceConverter.sol\":1135:1151  uint256 ethPrice */\n      dup1\n        /* \"contracts/PriceConverter.sol\":1154:1164  getPrice() */\n      tag_73\n        /* \"contracts/PriceConverter.sol\":1154:1162  getPrice */\n      tag_74\n        /* \"contracts/PriceConverter.sol\":1154:1164  getPrice() */\n      jump\t// in\n    tag_73:\n        /* \"contracts/PriceConverter.sol\":1135:1164  uint256 ethPrice = getPrice() */\n      swap1\n      pop\n        /* \"contracts/PriceConverter.sol\":1174:1196  uint256 ethAmountInUsd */\n      0x00\n        /* \"contracts/PriceConverter.sol\":1224:1228  1e18 */\n      0x0de0b6b3a7640000\n        /* \"contracts/PriceConverter.sol\":1211:1220  ethAmount */\n      dup5\n        /* \"contracts/PriceConverter.sol\":1200:1208  ethPrice */\n      dup4\n        /* \"contracts/PriceConverter.sol\":1200:1220  ethPrice * ethAmount */\n      tag_75\n      swap2\n      swap1\n      tag_76\n      jump\t// in\n    tag_75:\n        /* \"contracts/PriceConverter.sol\":1199:1228  (ethPrice * ethAmount) / 1e18 */\n      tag_77\n      swap2\n      swap1\n      tag_78\n      jump\t// in\n    tag_77:\n        /* \"contracts/PriceConverter.sol\":1174:1228  uint256 ethAmountInUsd = (ethPrice * ethAmount) / 1e18 */\n      swap1\n      pop\n        /* \"contracts/PriceConverter.sol\":1245:1259  ethAmountInUsd */\n      dup1\n        /* \"contracts/PriceConverter.sol\":1238:1259  return ethAmountInUsd */\n      swap3\n      pop\n      pop\n      pop\n        /* \"contracts/PriceConverter.sol\":1047:1266  function getConversionRate(uint256 ethAmount) internal view returns (uint256) {... */\n      swap2\n      swap1\n      pop\n      jump\t// out\n        /* \"contracts/PriceConverter.sol\":188:829  function getPrice() internal view returns(uint256) {... */\n    tag_74:\n        /* \"contracts/PriceConverter.sol\":230:237  uint256 */\n      0x00\n        /* \"contracts/PriceConverter.sol\":325:356  AggregatorV3Interface priceFeed */\n      dup1\n        /* \"contracts/PriceConverter.sol\":381:423  0x8A753747A1Fa494EC906cE90E9f37563A8AF630e */\n      0x8a753747a1fa494ec906ce90e9f37563a8af630e\n        /* \"contracts/PriceConverter.sol\":325:424  AggregatorV3Interface priceFeed = AggregatorV3Interface(0x8A753747A1Fa494EC906cE90E9f37563A8AF630e) */\n      swap1\n      pop\n        /* \"contracts/PriceConverter.sol\":657:669  int256 price */\n      0x00\n        /* \"contracts/PriceConverter.sol\":676:685  priceFeed */\n      dup2\n        /* \"contracts/PriceConverter.sol\":676:701  priceFeed.latestRoundData */\n      0xffffffffffffffffffffffffffffffffffffffff\n      and\n      0xfeaf968c\n        /* \"contracts/PriceConverter.sol\":676:703  priceFeed.latestRoundData() */\n      mload(0x40)\n      dup2\n      0xffffffff\n      and\n      0xe0\n      shl\n      dup2\n      mstore\n      0x04\n      add\n      0xa0\n      mload(0x40)\n      dup1\n      dup4\n      sub\n      dup2\n      dup7\n      gas\n      staticcall\n      iszero\n      dup1\n      iszero\n      tag_81\n      jumpi\n      returndatasize\n      0x00\n      dup1\n      returndatacopy\n      revert(0x00, returndatasize)\n    tag_81:\n      pop\n      pop\n      pop\n      pop\n      mload(0x40)\n      returndatasize\n      not(0x1f)\n      0x1f\n      dup3\n      add\n      and\n      dup3\n      add\n      dup1\n      0x40\n      mstore\n      pop\n      dup2\n      add\n      swap1\n      tag_82\n      swap2\n      swap1\n      tag_83\n      jump\t// in\n    tag_82:\n        /* \"contracts/PriceConverter.sol\":655:703  (,int256 price,,,) = priceFeed.latestRoundData() */\n      pop\n      pop\n      pop\n      swap2\n      pop\n      pop\n        /* \"contracts/PriceConverter.sol\":793:797  1e10 */\n      0x02540be400\n        /* \"contracts/PriceConverter.sol\":785:790  price */\n      dup2\n        /* \"contracts/PriceConverter.sol\":785:797  price * 1e10 */\n      tag_84\n      swap2\n      swap1\n      tag_85\n      jump\t// in\n    tag_84:\n        /* \"contracts/PriceConverter.sol\":770:798  return uint256(price * 1e10) */\n      swap3\n      pop\n      pop\n      pop\n        /* \"contracts/PriceConverter.sol\":188:829  function getPrice() internal view returns(uint256) {... */\n      swap1\n      jump\t// out\n    tag_54:\n      dup3\n      dup1\n      sload\n      dup3\n      dup3\n      sstore\n      swap1\n      0x00\n      mstore\n      keccak256(0x00, 0x20)\n      swap1\n      dup2\n      add\n      swap3\n      dup3\n      iszero\n      tag_86\n      jumpi\n      swap2\n      0x20\n      mul\n      dup3\n      add\n    tag_87:\n      dup3\n      dup2\n      gt\n      iszero\n      tag_88\n      jumpi\n      dup3\n      mload\n      dup3\n      exp(0x0100, 0x00)\n      dup2\n      sload\n      dup2\n      0xffffffffffffffffffffffffffffffffffffffff\n      mul\n      not\n      and\n      swap1\n      dup4\n      0xffffffffffffffffffffffffffffffffffffffff\n      and\n      mul\n      or\n      swap1\n      sstore\n      pop\n      swap2\n      0x20\n      add\n      swap2\n      swap1\n      0x01\n      add\n      swap1\n      jump(tag_87)\n    tag_88:\n    tag_86:\n      pop\n      swap1\n      pop\n      tag_89\n      swap2\n      swap1\n      tag_90\n      jump\t// in\n    tag_89:\n      pop\n      swap1\n      jump\t// out\n    tag_90:\n    tag_91:\n      dup1\n      dup3\n      gt\n      iszero\n      tag_92\n      jumpi\n      0x00\n      dup2\n      0x00\n      swap1\n      sstore\n      pop\n      0x01\n      add\n      jump(tag_91)\n    tag_92:\n      pop\n      swap1\n      jump\t// out\n        /* \"#utility.yul\":7:84   */\n    tag_93:\n        /* \"#utility.yul\":44:51   */\n      0x00\n        /* \"#utility.yul\":73:78   */\n      dup2\n        /* \"#utility.yul\":62:78   */\n      swap1\n      pop\n        /* \"#utility.yul\":7:84   */\n      swap2\n      swap1\n      pop\n      jump\t// out\n        /* \"#utility.yul\":90:208   */\n    tag_94:\n        /* \"#utility.yul\":177:201   */\n      tag_127\n        /* \"#utility.yul\":195:200   */\n      dup2\n        /* \"#utility.yul\":177:201   */\n      tag_93\n      jump\t// in\n    tag_127:\n        /* \"#utility.yul\":172:175   */\n      dup3\n        /* \"#utility.yul\":165:202   */\n      mstore\n        /* \"#utility.yul\":90:208   */\n      pop\n      pop\n      jump\t// out\n        /* \"#utility.yul\":214:436   */\n    tag_12:\n        /* \"#utility.yul\":307:311   */\n      0x00\n        /* \"#utility.yul\":345:347   */\n      0x20\n        /* \"#utility.yul\":334:343   */\n      dup3\n        /* \"#utility.yul\":330:348   */\n      add\n        /* \"#utility.yul\":322:348   */\n      swap1\n      pop\n        /* \"#utility.yul\":358:429   */\n      tag_129\n        /* \"#utility.yul\":426:427   */\n      0x00\n        /* \"#utility.yul\":415:424   */\n      dup4\n        /* \"#utility.yul\":411:428   */\n      add\n        /* \"#utility.yul\":402:408   */\n      dup5\n        /* \"#utility.yul\":358:429   */\n      tag_94\n      jump\t// in\n    tag_129:\n        /* \"#utility.yul\":214:436   */\n      swap3\n      swap2\n      pop\n      pop\n      jump\t// out\n        /* \"#utility.yul\":523:640   */\n    tag_96:\n        /* \"#utility.yul\":632:633   */\n      0x00\n        /* \"#utility.yul\":629:630   */\n      dup1\n        /* \"#utility.yul\":622:634   */\n      revert\n        /* \"#utility.yul\":769:895   */\n    tag_98:\n        /* \"#utility.yul\":806:813   */\n      0x00\n        /* \"#utility.yul\":846:888   */\n      0xffffffffffffffffffffffffffffffffffffffff\n        /* \"#utility.yul\":839:844   */\n      dup3\n        /* \"#utility.yul\":835:889   */\n      and\n        /* \"#utility.yul\":824:889   */\n      swap1\n      pop\n        /* \"#utility.yul\":769:895   */\n      swap2\n      swap1\n      pop\n      jump\t// out\n        /* \"#utility.yul\":901:997   */\n    tag_99:\n        /* \"#utility.yul\":938:945   */\n      0x00\n        /* \"#utility.yul\":967:991   */\n      tag_135\n        /* \"#utility.yul\":985:990   */\n      dup3\n        /* \"#utility.yul\":967:991   */\n      tag_98\n      jump\t// in\n    tag_135:\n        /* \"#utility.yul\":956:991   */\n      swap1\n      pop\n        /* \"#utility.yul\":901:997   */\n      swap2\n      swap1\n      pop\n      jump\t// out\n        /* \"#utility.yul\":1003:1125   */\n    tag_100:\n        /* \"#utility.yul\":1076:1100   */\n      tag_137\n        /* \"#utility.yul\":1094:1099   */\n      dup2\n        /* \"#utility.yul\":1076:1100   */\n      tag_99\n      jump\t// in\n    tag_137:\n        /* \"#utility.yul\":1069:1074   */\n      dup2\n        /* \"#utility.yul\":1066:1101   */\n      eq\n        /* \"#utility.yul\":1056:1119   */\n      tag_138\n      jumpi\n        /* \"#utility.yul\":1115:1116   */\n      0x00\n        /* \"#utility.yul\":1112:1113   */\n      dup1\n        /* \"#utility.yul\":1105:1117   */\n      revert\n        /* \"#utility.yul\":1056:1119   */\n    tag_138:\n        /* \"#utility.yul\":1003:1125   */\n      pop\n      jump\t// out\n        /* \"#utility.yul\":1131:1270   */\n    tag_101:\n        /* \"#utility.yul\":1177:1182   */\n      0x00\n        /* \"#utility.yul\":1215:1221   */\n      dup2\n        /* \"#utility.yul\":1202:1222   */\n      calldataload\n        /* \"#utility.yul\":1193:1222   */\n      swap1\n      pop\n        /* \"#utility.yul\":1231:1264   */\n      tag_140\n        /* \"#utility.yul\":1258:1263   */\n      dup2\n        /* \"#utility.yul\":1231:1264   */\n      tag_100\n      jump\t// in\n    tag_140:\n        /* \"#utility.yul\":1131:1270   */\n      swap3\n      swap2\n      pop\n      pop\n      jump\t// out\n        /* \"#utility.yul\":1276:1605   */\n    tag_16:\n        /* \"#utility.yul\":1335:1341   */\n      0x00\n        /* \"#utility.yul\":1384:1386   */\n      0x20\n        /* \"#utility.yul\":1372:1381   */\n      dup3\n        /* \"#utility.yul\":1363:1370   */\n      dup5\n        /* \"#utility.yul\":1359:1382   */\n      sub\n        /* \"#utility.yul\":1355:1387   */\n      slt\n        /* \"#utility.yul\":1352:1471   */\n      iszero\n      tag_142\n      jumpi\n        /* \"#utility.yul\":1390:1469   */\n      tag_143\n      tag_96\n      jump\t// in\n    tag_143:\n        /* \"#utility.yul\":1352:1471   */\n    tag_142:\n        /* \"#utility.yul\":1510:1511   */\n      0x00\n        /* \"#utility.yul\":1535:1588   */\n      tag_144\n        /* \"#utility.yul\":1580:1587   */\n      dup5\n        /* \"#utility.yul\":1571:1577   */\n      dup3\n        /* \"#utility.yul\":1560:1569   */\n      dup6\n        /* \"#utility.yul\":1556:1578   */\n      add\n        /* \"#utility.yul\":1535:1588   */\n      tag_101\n      jump\t// in\n    tag_144:\n        /* \"#utility.yul\":1525:1588   */\n      swap2\n      pop\n        /* \"#utility.yul\":1481:1598   */\n      pop\n        /* \"#utility.yul\":1276:1605   */\n      swap3\n      swap2\n      pop\n      pop\n      jump\t// out\n        /* \"#utility.yul\":1611:1729   */\n    tag_102:\n        /* \"#utility.yul\":1698:1722   */\n      tag_146\n        /* \"#utility.yul\":1716:1721   */\n      dup2\n        /* \"#utility.yul\":1698:1722   */\n      tag_99\n      jump\t// in\n    tag_146:\n        /* \"#utility.yul\":1693:1696   */\n      dup3\n        /* \"#utility.yul\":1686:1723   */\n      mstore\n        /* \"#utility.yul\":1611:1729   */\n      pop\n      pop\n      jump\t// out\n        /* \"#utility.yul\":1735:1957   */\n    tag_26:\n        /* \"#utility.yul\":1828:1832   */\n      0x00\n        /* \"#utility.yul\":1866:1868   */\n      0x20\n        /* \"#utility.yul\":1855:1864   */\n      dup3\n        /* \"#utility.yul\":1851:1869   */\n      add\n        /* \"#utility.yul\":1843:1869   */\n      swap1\n      pop\n        /* \"#utility.yul\":1879:1950   */\n      tag_148\n        /* \"#utility.yul\":1947:1948   */\n      0x00\n        /* \"#utility.yul\":1936:1945   */\n      dup4\n        /* \"#utility.yul\":1932:1949   */\n      add\n        /* \"#utility.yul\":1923:1929   */\n      dup5\n        /* \"#utility.yul\":1879:1950   */\n      tag_102\n      jump\t// in\n    tag_148:\n        /* \"#utility.yul\":1735:1957   */\n      swap3\n      swap2\n      pop\n      pop\n      jump\t// out\n        /* \"#utility.yul\":1963:2085   */\n    tag_103:\n        /* \"#utility.yul\":2036:2060   */\n      tag_150\n        /* \"#utility.yul\":2054:2059   */\n      dup2\n        /* \"#utility.yul\":2036:2060   */\n      tag_93\n      jump\t// in\n    tag_150:\n        /* \"#utility.yul\":2029:2034   */\n      dup2\n        /* \"#utility.yul\":2026:2061   */\n      eq\n        /* \"#utility.yul\":2016:2079   */\n      tag_151\n      jumpi\n        /* \"#utility.yul\":2075:2076   */\n      0x00\n        /* \"#utility.yul\":2072:2073   */\n      dup1\n        /* \"#utility.yul\":2065:2077   */\n      revert\n        /* \"#utility.yul\":2016:2079   */\n    tag_151:\n        /* \"#utility.yul\":1963:2085   */\n      pop\n      jump\t// out\n        /* \"#utility.yul\":2091:2230   */\n    tag_104:\n        /* \"#utility.yul\":2137:2142   */\n      0x00\n        /* \"#utility.yul\":2175:2181   */\n      dup2\n        /* \"#utility.yul\":2162:2182   */\n      calldataload\n        /* \"#utility.yul\":2153:2182   */\n      swap1\n      pop\n        /* \"#utility.yul\":2191:2224   */\n      tag_153\n        /* \"#utility.yul\":2218:2223   */\n      dup2\n        /* \"#utility.yul\":2191:2224   */\n      tag_103\n      jump\t// in\n    tag_153:\n        /* \"#utility.yul\":2091:2230   */\n      swap3\n      swap2\n      pop\n      pop\n      jump\t// out\n        /* \"#utility.yul\":2236:2565   */\n    tag_32:\n        /* \"#utility.yul\":2295:2301   */\n      0x00\n        /* \"#utility.yul\":2344:2346   */\n      0x20\n        /* \"#utility.yul\":2332:2341   */\n      dup3\n        /* \"#utility.yul\":2323:2330   */\n      dup5\n        /* \"#utility.yul\":2319:2342   */\n      sub\n        /* \"#utility.yul\":2315:2347   */\n      slt\n        /* \"#utility.yul\":2312:2431   */\n      iszero\n      tag_155\n      jumpi\n        /* \"#utility.yul\":2350:2429   */\n      tag_156\n      tag_96\n      jump\t// in\n    tag_156:\n        /* \"#utility.yul\":2312:2431   */\n    tag_155:\n        /* \"#utility.yul\":2470:2471   */\n      0x00\n        /* \"#utility.yul\":2495:2548   */\n      tag_157\n        /* \"#utility.yul\":2540:2547   */\n      dup5\n        /* \"#utility.yul\":2531:2537   */\n      dup3\n        /* \"#utility.yul\":2520:2529   */\n      dup6\n        /* \"#utility.yul\":2516:2538   */\n      add\n        /* \"#utility.yul\":2495:2548   */\n      tag_104\n      jump\t// in\n    tag_157:\n        /* \"#utility.yul\":2485:2548   */\n      swap2\n      pop\n        /* \"#utility.yul\":2441:2558   */\n      pop\n        /* \"#utility.yul\":2236:2565   */\n      swap3\n      swap2\n      pop\n      pop\n      jump\t// out\n        /* \"#utility.yul\":2571:2740   */\n    tag_105:\n        /* \"#utility.yul\":2655:2666   */\n      0x00\n        /* \"#utility.yul\":2689:2695   */\n      dup3\n        /* \"#utility.yul\":2684:2687   */\n      dup3\n        /* \"#utility.yul\":2677:2696   */\n      mstore\n        /* \"#utility.yul\":2729:2733   */\n      0x20\n        /* \"#utility.yul\":2724:2727   */\n      dup3\n        /* \"#utility.yul\":2720:2734   */\n      add\n        /* \"#utility.yul\":2705:2734   */\n      swap1\n      pop\n        /* \"#utility.yul\":2571:2740   */\n      swap3\n      swap2\n      pop\n      pop\n      jump\t// out\n        /* \"#utility.yul\":2746:2915   */\n    tag_106:\n        /* \"#utility.yul\":2886:2907   */\n      0x53656e646572206973206e6f74206f776e657200000000000000000000000000\n        /* \"#utility.yul\":2882:2883   */\n      0x00\n        /* \"#utility.yul\":2874:2880   */\n      dup3\n        /* \"#utility.yul\":2870:2884   */\n      add\n        /* \"#utility.yul\":2863:2908   */\n      mstore\n        /* \"#utility.yul\":2746:2915   */\n      pop\n      jump\t// out\n        /* \"#utility.yul\":2921:3287   */\n    tag_107:\n        /* \"#utility.yul\":3063:3066   */\n      0x00\n        /* \"#utility.yul\":3084:3151   */\n      tag_161\n        /* \"#utility.yul\":3148:3150   */\n      0x13\n        /* \"#utility.yul\":3143:3146   */\n      dup4\n        /* \"#utility.yul\":3084:3151   */\n      tag_105\n      jump\t// in\n    tag_161:\n        /* \"#utility.yul\":3077:3151   */\n      swap2\n      pop\n        /* \"#utility.yul\":3160:3253   */\n      tag_162\n        /* \"#utility.yul\":3249:3252   */\n      dup3\n        /* \"#utility.yul\":3160:3253   */\n      tag_106\n      jump\t// in\n    tag_162:\n        /* \"#utility.yul\":3278:3280   */\n      0x20\n        /* \"#utility.yul\":3273:3276   */\n      dup3\n        /* \"#utility.yul\":3269:3281   */\n      add\n        /* \"#utility.yul\":3262:3281   */\n      swap1\n      pop\n        /* \"#utility.yul\":2921:3287   */\n      swap2\n      swap1\n      pop\n      jump\t// out\n        /* \"#utility.yul\":3293:3712   */\n    tag_38:\n        /* \"#utility.yul\":3459:3463   */\n      0x00\n        /* \"#utility.yul\":3497:3499   */\n      0x20\n        /* \"#utility.yul\":3486:3495   */\n      dup3\n        /* \"#utility.yul\":3482:3500   */\n      add\n        /* \"#utility.yul\":3474:3500   */\n      swap1\n      pop\n        /* \"#utility.yul\":3546:3555   */\n      dup2\n        /* \"#utility.yul\":3540:3544   */\n      dup2\n        /* \"#utility.yul\":3536:3556   */\n      sub\n        /* \"#utility.yul\":3532:3533   */\n      0x00\n        /* \"#utility.yul\":3521:3530   */\n      dup4\n        /* \"#utility.yul\":3517:3534   */\n      add\n        /* \"#utility.yul\":3510:3557   */\n      mstore\n        /* \"#utility.yul\":3574:3705   */\n      tag_164\n        /* \"#utility.yul\":3700:3704   */\n      dup2\n        /* \"#utility.yul\":3574:3705   */\n      tag_107\n      jump\t// in\n    tag_164:\n        /* \"#utility.yul\":3566:3705   */\n      swap1\n      pop\n        /* \"#utility.yul\":3293:3712   */\n      swap2\n      swap1\n      pop\n      jump\t// out\n        /* \"#utility.yul\":3718:3898   */\n    tag_45:\n        /* \"#utility.yul\":3766:3843   */\n      0x4e487b7100000000000000000000000000000000000000000000000000000000\n        /* \"#utility.yul\":3763:3764   */\n      0x00\n        /* \"#utility.yul\":3756:3844   */\n      mstore\n        /* \"#utility.yul\":3863:3867   */\n      0x32\n        /* \"#utility.yul\":3860:3861   */\n      0x04\n        /* \"#utility.yul\":3853:3868   */\n      mstore\n        /* \"#utility.yul\":3887:3891   */\n      0x24\n        /* \"#utility.yul\":3884:3885   */\n      0x00\n        /* \"#utility.yul\":3877:3892   */\n      revert\n        /* \"#utility.yul\":3904:4084   */\n    tag_108:\n        /* \"#utility.yul\":3952:4029   */\n      0x4e487b7100000000000000000000000000000000000000000000000000000000\n        /* \"#utility.yul\":3949:3950   */\n      0x00\n        /* \"#utility.yul\":3942:4030   */\n      mstore\n        /* \"#utility.yul\":4049:4053   */\n      0x11\n        /* \"#utility.yul\":4046:4047   */\n      0x04\n        /* \"#utility.yul\":4039:4054   */\n      mstore\n        /* \"#utility.yul\":4073:4077   */\n      0x24\n        /* \"#utility.yul\":4070:4071   */\n      0x00\n        /* \"#utility.yul\":4063:4078   */\n      revert\n        /* \"#utility.yul\":4090:4323   */\n    tag_48:\n        /* \"#utility.yul\":4129:4132   */\n      0x00\n        /* \"#utility.yul\":4152:4176   */\n      tag_168\n        /* \"#utility.yul\":4170:4175   */\n      dup3\n        /* \"#utility.yul\":4152:4176   */\n      tag_93\n      jump\t// in\n    tag_168:\n        /* \"#utility.yul\":4143:4176   */\n      swap2\n      pop\n        /* \"#utility.yul\":4198:4264   */\n      0xffffffffffffffffffffffffffffffffffffffffffffffffffffffffffffffff\n        /* \"#utility.yul\":4191:4196   */\n      dup3\n        /* \"#utility.yul\":4188:4265   */\n      sub\n        /* \"#utility.yul\":4185:4288   */\n      tag_169\n      jumpi\n        /* \"#utility.yul\":4268:4286   */\n      tag_170\n      tag_108\n      jump\t// in\n    tag_170:\n        /* \"#utility.yul\":4185:4288   */\n    tag_169:\n        /* \"#utility.yul\":4315:4316   */\n      0x01\n        /* \"#utility.yul\":4308:4313   */\n      dup3\n        /* \"#utility.yul\":4304:4317   */\n      add\n        /* \"#utility.yul\":4297:4317   */\n      swap1\n      pop\n        /* \"#utility.yul\":4090:4323   */\n      swap2\n      swap1\n      pop\n      jump\t// out\n        /* \"#utility.yul\":4329:4509   */\n    tag_51:\n        /* \"#utility.yul\":4377:4454   */\n      0x4e487b7100000000000000000000000000000000000000000000000000000000\n        /* \"#utility.yul\":4374:4375   */\n      0x00\n        /* \"#utility.yul\":4367:4455   */\n      mstore\n        /* \"#utility.yul\":4474:4478   */\n      0x41\n        /* \"#utility.yul\":4471:4472   */\n      0x04\n        /* \"#utility.yul\":4464:4479   */\n      mstore\n        /* \"#utility.yul\":4498:4502   */\n      0x24\n        /* \"#utility.yul\":4495:4496   */\n      0x00\n        /* \"#utility.yul\":4488:4503   */\n      revert\n        /* \"#utility.yul\":4515:4662   */\n    tag_109:\n        /* \"#utility.yul\":4616:4627   */\n      0x00\n        /* \"#utility.yul\":4653:4656   */\n      dup2\n        /* \"#utility.yul\":4638:4656   */\n      swap1\n      pop\n        /* \"#utility.yul\":4515:4662   */\n      swap3\n      swap2\n      pop\n      pop\n      jump\t// out\n        /* \"#utility.yul\":4668:4782   */\n    tag_110:\n      pop\n      jump\t// out\n        /* \"#utility.yul\":4788:5186   */\n    tag_111:\n        /* \"#utility.yul\":4947:4950   */\n      0x00\n        /* \"#utility.yul\":4968:5051   */\n      tag_175\n        /* \"#utility.yul\":5049:5050   */\n      0x00\n        /* \"#utility.yul\":5044:5047   */\n      dup4\n        /* \"#utility.yul\":4968:5051   */\n      tag_109\n      jump\t// in\n    tag_175:\n        /* \"#utility.yul\":4961:5051   */\n      swap2\n      pop\n        /* \"#utility.yul\":5060:5153   */\n      tag_176\n        /* \"#utility.yul\":5149:5152   */\n      dup3\n        /* \"#utility.yul\":5060:5153   */\n      tag_110\n      jump\t// in\n    tag_176:\n        /* \"#utility.yul\":5178:5179   */\n      0x00\n        /* \"#utility.yul\":5173:5176   */\n      dup3\n        /* \"#utility.yul\":5169:5180   */\n      add\n        /* \"#utility.yul\":5162:5180   */\n      swap1\n      pop\n        /* \"#utility.yul\":4788:5186   */\n      swap2\n      swap1\n      pop\n      jump\t// out\n        /* \"#utility.yul\":5192:5571   */\n    tag_56:\n        /* \"#utility.yul\":5376:5379   */\n      0x00\n        /* \"#utility.yul\":5398:5545   */\n      tag_178\n        /* \"#utility.yul\":5541:5544   */\n      dup3\n        /* \"#utility.yul\":5398:5545   */\n      tag_111\n      jump\t// in\n    tag_178:\n        /* \"#utility.yul\":5391:5545   */\n      swap2\n      pop\n        /* \"#utility.yul\":5562:5565   */\n      dup2\n        /* \"#utility.yul\":5555:5565   */\n      swap1\n      pop\n        /* \"#utility.yul\":5192:5571   */\n      swap2\n      swap1\n      pop\n      jump\t// out\n        /* \"#utility.yul\":5577:5739   */\n    tag_112:\n        /* \"#utility.yul\":5717:5731   */\n      0x43616c6c204661696c6564210000000000000000000000000000000000000000\n        /* \"#utility.yul\":5713:5714   */\n      0x00\n        /* \"#utility.yul\":5705:5711   */\n      dup3\n        /* \"#utility.yul\":5701:5715   */\n      add\n        /* \"#utility.yul\":5694:5732   */\n      mstore\n        /* \"#utility.yul\":5577:5739   */\n      pop\n      jump\t// out\n        /* \"#utility.yul\":5745:6111   */\n    tag_113:\n        /* \"#utility.yul\":5887:5890   */\n      0x00\n        /* \"#utility.yul\":5908:5975   */\n      tag_181\n        /* \"#utility.yul\":5972:5974   */\n      0x0c\n        /* \"#utility.yul\":5967:5970   */\n      dup4\n        /* \"#utility.yul\":5908:5975   */\n      tag_105\n      jump\t// in\n    tag_181:\n        /* \"#utility.yul\":5901:5975   */\n      swap2\n      pop\n        /* \"#utility.yul\":5984:6077   */\n      tag_182\n        /* \"#utility.yul\":6073:6076   */\n      dup3\n        /* \"#utility.yul\":5984:6077   */\n      tag_112\n      jump\t// in\n    tag_182:\n        /* \"#utility.yul\":6102:6104   */\n      0x20\n        /* \"#utility.yul\":6097:6100   */\n      dup3\n        /* \"#utility.yul\":6093:6105   */\n      add\n        /* \"#utility.yul\":6086:6105   */\n      swap1\n      pop\n        /* \"#utility.yul\":5745:6111   */\n      swap2\n      swap1\n      pop\n      jump\t// out\n        /* \"#utility.yul\":6117:6536   */\n    tag_62:\n        /* \"#utility.yul\":6283:6287   */\n      0x00\n        /* \"#utility.yul\":6321:6323   */\n      0x20\n        /* \"#utility.yul\":6310:6319   */\n      dup3\n        /* \"#utility.yul\":6306:6324   */\n      add\n        /* \"#utility.yul\":6298:6324   */\n      swap1\n      pop\n        /* \"#utility.yul\":6370:6379   */\n      dup2\n        /* \"#utility.yul\":6364:6368   */\n      dup2\n        /* \"#utility.yul\":6360:6380   */\n      sub\n        /* \"#utility.yul\":6356:6357   */\n      0x00\n        /* \"#utility.yul\":6345:6354   */\n      dup4\n        /* \"#utility.yul\":6341:6358   */\n      add\n        /* \"#utility.yul\":6334:6381   */\n      mstore\n        /* \"#utility.yul\":6398:6529   */\n      tag_184\n        /* \"#utility.yul\":6524:6528   */\n      dup2\n        /* \"#utility.yul\":6398:6529   */\n      tag_113\n      jump\t// in\n    tag_184:\n        /* \"#utility.yul\":6390:6529   */\n      swap1\n      pop\n        /* \"#utility.yul\":6117:6536   */\n      swap2\n      swap1\n      pop\n      jump\t// out\n        /* \"#utility.yul\":6542:6711   */\n    tag_114:\n        /* \"#utility.yul\":6682:6703   */\n      0x4469646e27742073656e6420656e6f7567682100000000000000000000000000\n        /* \"#utility.yul\":6678:6679   */\n      0x00\n        /* \"#utility.yul\":6670:6676   */\n      dup3\n        /* \"#utility.yul\":6666:6680   */\n      add\n        /* \"#utility.yul\":6659:6704   */\n      mstore\n        /* \"#utility.yul\":6542:6711   */\n      pop\n      jump\t// out\n        /* \"#utility.yul\":6717:7083   */\n    tag_115:\n        /* \"#utility.yul\":6859:6862   */\n      0x00\n        /* \"#utility.yul\":6880:6947   */\n      tag_187\n        /* \"#utility.yul\":6944:6946   */\n      0x13\n        /* \"#utility.yul\":6939:6942   */\n      dup4\n        /* \"#utility.yul\":6880:6947   */\n      tag_105\n      jump\t// in\n    tag_187:\n        /* \"#utility.yul\":6873:6947   */\n      swap2\n      pop\n        /* \"#utility.yul\":6956:7049   */\n      tag_188\n        /* \"#utility.yul\":7045:7048   */\n      dup3\n        /* \"#utility.yul\":6956:7049   */\n      tag_114\n      jump\t// in\n    tag_188:\n        /* \"#utility.yul\":7074:7076   */\n      0x20\n        /* \"#utility.yul\":7069:7072   */\n      dup3\n        /* \"#utility.yul\":7065:7077   */\n      add\n        /* \"#utility.yul\":7058:7077   */\n      swap1\n      pop\n        /* \"#utility.yul\":6717:7083   */\n      swap2\n      swap1\n      pop\n      jump\t// out\n        /* \"#utility.yul\":7089:7508   */\n    tag_68:\n        /* \"#utility.yul\":7255:7259   */\n      0x00\n        /* \"#utility.yul\":7293:7295   */\n      0x20\n        /* \"#utility.yul\":7282:7291   */\n      dup3\n        /* \"#utility.yul\":7278:7296   */\n      add\n        /* \"#utility.yul\":7270:7296   */\n      swap1\n      pop\n        /* \"#utility.yul\":7342:7351   */\n      dup2\n        /* \"#utility.yul\":7336:7340   */\n      dup2\n        /* \"#utility.yul\":7332:7352   */\n      sub\n        /* \"#utility.yul\":7328:7329   */\n      0x00\n        /* \"#utility.yul\":7317:7326   */\n      dup4\n        /* \"#utility.yul\":7313:7330   */\n      add\n        /* \"#utility.yul\":7306:7353   */\n      mstore\n        /* \"#utility.yul\":7370:7501   */\n      tag_190\n        /* \"#utility.yul\":7496:7500   */\n      dup2\n        /* \"#utility.yul\":7370:7501   */\n      tag_115\n      jump\t// in\n    tag_190:\n        /* \"#utility.yul\":7362:7501   */\n      swap1\n      pop\n        /* \"#utility.yul\":7089:7508   */\n      swap2\n      swap1\n      pop\n      jump\t// out\n        /* \"#utility.yul\":7514:7862   */\n    tag_76:\n        /* \"#utility.yul\":7554:7561   */\n      0x00\n        /* \"#utility.yul\":7577:7597   */\n      tag_192\n        /* \"#utility.yul\":7595:7596   */\n      dup3\n        /* \"#utility.yul\":7577:7597   */\n      tag_93\n      jump\t// in\n    tag_192:\n        /* \"#utility.yul\":7572:7597   */\n      swap2\n      pop\n        /* \"#utility.yul\":7611:7631   */\n      tag_193\n        /* \"#utility.yul\":7629:7630   */\n      dup4\n        /* \"#utility.yul\":7611:7631   */\n      tag_93\n      jump\t// in\n    tag_193:\n        /* \"#utility.yul\":7606:7631   */\n      swap3\n      pop\n        /* \"#utility.yul\":7799:7800   */\n      dup2\n        /* \"#utility.yul\":7731:7797   */\n      0xffffffffffffffffffffffffffffffffffffffffffffffffffffffffffffffff\n        /* \"#utility.yul\":7727:7801   */\n      div\n        /* \"#utility.yul\":7724:7725   */\n      dup4\n        /* \"#utility.yul\":7721:7802   */\n      gt\n        /* \"#utility.yul\":7716:7717   */\n      dup3\n        /* \"#utility.yul\":7709:7718   */\n      iszero\n        /* \"#utility.yul\":7702:7719   */\n      iszero\n        /* \"#utility.yul\":7698:7803   */\n      and\n        /* \"#utility.yul\":7695:7826   */\n      iszero\n      tag_194\n      jumpi\n        /* \"#utility.yul\":7806:7824   */\n      tag_195\n      tag_108\n      jump\t// in\n    tag_195:\n        /* \"#utility.yul\":7695:7826   */\n    tag_194:\n        /* \"#utility.yul\":7854:7855   */\n      dup3\n        /* \"#utility.yul\":7851:7852   */\n      dup3\n        /* \"#utility.yul\":7847:7856   */\n      mul\n        /* \"#utility.yul\":7836:7856   */\n      swap1\n      pop\n        /* \"#utility.yul\":7514:7862   */\n      swap3\n      swap2\n      pop\n      pop\n      jump\t// out\n        /* \"#utility.yul\":7868:8048   */\n    tag_116:\n        /* \"#utility.yul\":7916:7993   */\n      0x4e487b7100000000000000000000000000000000000000000000000000000000\n        /* \"#utility.yul\":7913:7914   */\n      0x00\n        /* \"#utility.yul\":7906:7994   */\n      mstore\n        /* \"#utility.yul\":8013:8017   */\n      0x12\n        /* \"#utility.yul\":8010:8011   */\n      0x04\n        /* \"#utility.yul\":8003:8018   */\n      mstore\n        /* \"#utility.yul\":8037:8041   */\n      0x24\n        /* \"#utility.yul\":8034:8035   */\n      0x00\n        /* \"#utility.yul\":8027:8042   */\n      revert\n        /* \"#utility.yul\":8054:8239   */\n    tag_78:\n        /* \"#utility.yul\":8094:8095   */\n      0x00\n        /* \"#utility.yul\":8111:8131   */\n      tag_198\n        /* \"#utility.yul\":8129:8130   */\n      dup3\n        /* \"#utility.yul\":8111:8131   */\n      tag_93\n      jump\t// in\n    tag_198:\n        /* \"#utility.yul\":8106:8131   */\n      swap2\n      pop\n        /* \"#utility.yul\":8145:8165   */\n      tag_199\n        /* \"#utility.yul\":8163:8164   */\n      dup4\n        /* \"#utility.yul\":8145:8165   */\n      tag_93\n      jump\t// in\n    tag_199:\n        /* \"#utility.yul\":8140:8165   */\n      swap3\n      pop\n        /* \"#utility.yul\":8184:8185   */\n      dup3\n        /* \"#utility.yul\":8174:8209   */\n      tag_200\n      jumpi\n        /* \"#utility.yul\":8189:8207   */\n      tag_201\n      tag_116\n      jump\t// in\n    tag_201:\n        /* \"#utility.yul\":8174:8209   */\n    tag_200:\n        /* \"#utility.yul\":8231:8232   */\n      dup3\n        /* \"#utility.yul\":8228:8229   */\n      dup3\n        /* \"#utility.yul\":8224:8233   */\n      div\n        /* \"#utility.yul\":8219:8233   */\n      swap1\n      pop\n        /* \"#utility.yul\":8054:8239   */\n      swap3\n      swap2\n      pop\n      pop\n      jump\t// out\n        /* \"#utility.yul\":8245:8350   */\n    tag_117:\n        /* \"#utility.yul\":8281:8288   */\n      0x00\n        /* \"#utility.yul\":8321:8343   */\n      0xffffffffffffffffffff\n        /* \"#utility.yul\":8314:8319   */\n      dup3\n        /* \"#utility.yul\":8310:8344   */\n      and\n        /* \"#utility.yul\":8299:8344   */\n      swap1\n      pop\n        /* \"#utility.yul\":8245:8350   */\n      swap2\n      swap1\n      pop\n      jump\t// out\n        /* \"#utility.yul\":8356:8476   */\n    tag_118:\n        /* \"#utility.yul\":8428:8451   */\n      tag_204\n        /* \"#utility.yul\":8445:8450   */\n      dup2\n        /* \"#utility.yul\":8428:8451   */\n      tag_117\n      jump\t// in\n    tag_204:\n        /* \"#utility.yul\":8421:8426   */\n      dup2\n        /* \"#utility.yul\":8418:8452   */\n      eq\n        /* \"#utility.yul\":8408:8470   */\n      tag_205\n      jumpi\n        /* \"#utility.yul\":8466:8467   */\n      0x00\n        /* \"#utility.yul\":8463:8464   */\n      dup1\n        /* \"#utility.yul\":8456:8468   */\n      revert\n        /* \"#utility.yul\":8408:8470   */\n    tag_205:\n        /* \"#utility.yul\":8356:8476   */\n      pop\n      jump\t// out\n        /* \"#utility.yul\":8482:8623   */\n    tag_119:\n        /* \"#utility.yul\":8538:8543   */\n      0x00\n        /* \"#utility.yul\":8569:8575   */\n      dup2\n        /* \"#utility.yul\":8563:8576   */\n      mload\n        /* \"#utility.yul\":8554:8576   */\n      swap1\n      pop\n        /* \"#utility.yul\":8585:8617   */\n      tag_207\n        /* \"#utility.yul\":8611:8616   */\n      dup2\n        /* \"#utility.yul\":8585:8617   */\n      tag_118\n      jump\t// in\n    tag_207:\n        /* \"#utility.yul\":8482:8623   */\n      swap3\n      swap2\n      pop\n      pop\n      jump\t// out\n        /* \"#utility.yul\":8629:8705   */\n    tag_120:\n        /* \"#utility.yul\":8665:8672   */\n      0x00\n        /* \"#utility.yul\":8694:8699   */\n      dup2\n        /* \"#utility.yul\":8683:8699   */\n      swap1\n      pop\n        /* \"#utility.yul\":8629:8705   */\n      swap2\n      swap1\n      pop\n      jump\t// out\n        /* \"#utility.yul\":8711:8831   */\n    tag_121:\n        /* \"#utility.yul\":8783:8806   */\n      tag_210\n        /* \"#utility.yul\":8800:8805   */\n      dup2\n        /* \"#utility.yul\":8783:8806   */\n      tag_120\n      jump\t// in\n    tag_210:\n        /* \"#utility.yul\":8776:8781   */\n      dup2\n        /* \"#utility.yul\":8773:8807   */\n      eq\n        /* \"#utility.yul\":8763:8825   */\n      tag_211\n      jumpi\n        /* \"#utility.yul\":8821:8822   */\n      0x00\n        /* \"#utility.yul\":8818:8819   */\n      dup1\n        /* \"#utility.yul\":8811:8823   */\n      revert\n        /* \"#utility.yul\":8763:8825   */\n    tag_211:\n        /* \"#utility.yul\":8711:8831   */\n      pop\n      jump\t// out\n        /* \"#utility.yul\":8837:8978   */\n    tag_122:\n        /* \"#utility.yul\":8893:8898   */\n      0x00\n        /* \"#utility.yul\":8924:8930   */\n      dup2\n        /* \"#utility.yul\":8918:8931   */\n      mload\n        /* \"#utility.yul\":8909:8931   */\n      swap1\n      pop\n        /* \"#utility.yul\":8940:8972   */\n      tag_213\n        /* \"#utility.yul\":8966:8971   */\n      dup2\n        /* \"#utility.yul\":8940:8972   */\n      tag_121\n      jump\t// in\n    tag_213:\n        /* \"#utility.yul\":8837:8978   */\n      swap3\n      swap2\n      pop\n      pop\n      jump\t// out\n        /* \"#utility.yul\":8984:9127   */\n    tag_123:\n        /* \"#utility.yul\":9041:9046   */\n      0x00\n        /* \"#utility.yul\":9072:9078   */\n      dup2\n        /* \"#utility.yul\":9066:9079   */\n      mload\n        /* \"#utility.yul\":9057:9079   */\n      swap1\n      pop\n        /* \"#utility.yul\":9088:9121   */\n      tag_215\n        /* \"#utility.yul\":9115:9120   */\n      dup2\n        /* \"#utility.yul\":9088:9121   */\n      tag_103\n      jump\t// in\n    tag_215:\n        /* \"#utility.yul\":8984:9127   */\n      swap3\n      swap2\n      pop\n      pop\n      jump\t// out\n        /* \"#utility.yul\":9133:10104   */\n    tag_83:\n        /* \"#utility.yul\":9236:9242   */\n      0x00\n        /* \"#utility.yul\":9244:9250   */\n      dup1\n        /* \"#utility.yul\":9252:9258   */\n      0x00\n        /* \"#utility.yul\":9260:9266   */\n      dup1\n        /* \"#utility.yul\":9268:9274   */\n      0x00\n        /* \"#utility.yul\":9317:9320   */\n      0xa0\n        /* \"#utility.yul\":9305:9314   */\n      dup7\n        /* \"#utility.yul\":9296:9303   */\n      dup9\n        /* \"#utility.yul\":9292:9315   */\n      sub\n        /* \"#utility.yul\":9288:9321   */\n      slt\n        /* \"#utility.yul\":9285:9405   */\n      iszero\n      tag_217\n      jumpi\n        /* \"#utility.yul\":9324:9403   */\n      tag_218\n      tag_96\n      jump\t// in\n    tag_218:\n        /* \"#utility.yul\":9285:9405   */\n    tag_217:\n        /* \"#utility.yul\":9444:9445   */\n      0x00\n        /* \"#utility.yul\":9469:9532   */\n      tag_219\n        /* \"#utility.yul\":9524:9531   */\n      dup9\n        /* \"#utility.yul\":9515:9521   */\n      dup3\n        /* \"#utility.yul\":9504:9513   */\n      dup10\n        /* \"#utility.yul\":9500:9522   */\n      add\n        /* \"#utility.yul\":9469:9532   */\n      tag_119\n      jump\t// in\n    tag_219:\n        /* \"#utility.yul\":9459:9532   */\n      swap6\n      pop\n        /* \"#utility.yul\":9415:9542   */\n      pop\n        /* \"#utility.yul\":9581:9583   */\n      0x20\n        /* \"#utility.yul\":9607:9670   */\n      tag_220\n        /* \"#utility.yul\":9662:9669   */\n      dup9\n        /* \"#utility.yul\":9653:9659   */\n      dup3\n        /* \"#utility.yul\":9642:9651   */\n      dup10\n        /* \"#utility.yul\":9638:9660   */\n      add\n        /* \"#utility.yul\":9607:9670   */\n      tag_122\n      jump\t// in\n    tag_220:\n        /* \"#utility.yul\":9597:9670   */\n      swap5\n      pop\n        /* \"#utility.yul\":9552:9680   */\n      pop\n        /* \"#utility.yul\":9719:9721   */\n      0x40\n        /* \"#utility.yul\":9745:9809   */\n      tag_221\n        /* \"#utility.yul\":9801:9808   */\n      dup9\n        /* \"#utility.yul\":9792:9798   */\n      dup3\n        /* \"#utility.yul\":9781:9790   */\n      dup10\n        /* \"#utility.yul\":9777:9799   */\n      add\n        /* \"#utility.yul\":9745:9809   */\n      tag_123\n      jump\t// in\n    tag_221:\n        /* \"#utility.yul\":9735:9809   */\n      swap4\n      pop\n        /* \"#utility.yul\":9690:9819   */\n      pop\n        /* \"#utility.yul\":9858:9860   */\n      0x60\n        /* \"#utility.yul\":9884:9948   */\n      tag_222\n        /* \"#utility.yul\":9940:9947   */\n      dup9\n        /* \"#utility.yul\":9931:9937   */\n      dup3\n        /* \"#utility.yul\":9920:9929   */\n      dup10\n        /* \"#utility.yul\":9916:9938   */\n      add\n        /* \"#utility.yul\":9884:9948   */\n      tag_123\n      jump\t// in\n    tag_222:\n        /* \"#utility.yul\":9874:9948   */\n      swap3\n      pop\n        /* \"#utility.yul\":9829:9958   */\n      pop\n        /* \"#utility.yul\":9997:10000   */\n      0x80\n        /* \"#utility.yul\":10024:10087   */\n      tag_223\n        /* \"#utility.yul\":10079:10086   */\n      dup9\n        /* \"#utility.yul\":10070:10076   */\n      dup3\n        /* \"#utility.yul\":10059:10068   */\n      dup10\n        /* \"#utility.yul\":10055:10077   */\n      add\n        /* \"#utility.yul\":10024:10087   */\n      tag_119\n      jump\t// in\n    tag_223:\n        /* \"#utility.yul\":10014:10087   */\n      swap2\n      pop\n        /* \"#utility.yul\":9968:10097   */\n      pop\n        /* \"#utility.yul\":9133:10104   */\n      swap3\n      swap6\n      pop\n      swap3\n      swap6\n      swap1\n      swap4\n      pop\n      jump\t// out\n        /* \"#utility.yul\":10110:11101   */\n    tag_85:\n        /* \"#utility.yul\":10149:10156   */\n      0x00\n        /* \"#utility.yul\":10172:10191   */\n      tag_225\n        /* \"#utility.yul\":10189:10190   */\n      dup3\n        /* \"#utility.yul\":10172:10191   */\n      tag_120\n      jump\t// in\n    tag_225:\n        /* \"#utility.yul\":10167:10191   */\n      swap2\n      pop\n        /* \"#utility.yul\":10205:10224   */\n      tag_226\n        /* \"#utility.yul\":10222:10223   */\n      dup4\n        /* \"#utility.yul\":10205:10224   */\n      tag_120\n      jump\t// in\n    tag_226:\n        /* \"#utility.yul\":10200:10224   */\n      swap3\n      pop\n        /* \"#utility.yul\":10406:10407   */\n      dup3\n        /* \"#utility.yul\":10338:10404   */\n      0x7fffffffffffffffffffffffffffffffffffffffffffffffffffffffffffffff\n        /* \"#utility.yul\":10334:10408   */\n      div\n        /* \"#utility.yul\":10331:10332   */\n      dup3\n        /* \"#utility.yul\":10328:10409   */\n      gt\n        /* \"#utility.yul\":10323:10324   */\n      0x00\n        /* \"#utility.yul\":10320:10321   */\n      dup5\n        /* \"#utility.yul\":10316:10325   */\n      sgt\n        /* \"#utility.yul\":10312:10313   */\n      0x00\n        /* \"#utility.yul\":10309:10310   */\n      dup5\n        /* \"#utility.yul\":10305:10314   */\n      sgt\n        /* \"#utility.yul\":10301:10326   */\n      and\n        /* \"#utility.yul\":10297:10410   */\n      and\n        /* \"#utility.yul\":10294:10433   */\n      iszero\n      tag_227\n      jumpi\n        /* \"#utility.yul\":10413:10431   */\n      tag_228\n      tag_108\n      jump\t// in\n    tag_228:\n        /* \"#utility.yul\":10294:10433   */\n    tag_227:\n        /* \"#utility.yul\":10617:10618   */\n      dup2\n        /* \"#utility.yul\":10549:10615   */\n      0x8000000000000000000000000000000000000000000000000000000000000000\n        /* \"#utility.yul\":10544:10619   */\n      sdiv\n        /* \"#utility.yul\":10541:10542   */\n      dup4\n        /* \"#utility.yul\":10537:10620   */\n      slt\n        /* \"#utility.yul\":10532:10533   */\n      0x00\n        /* \"#utility.yul\":10529:10530   */\n      dup5\n        /* \"#utility.yul\":10525:10534   */\n      slt\n        /* \"#utility.yul\":10521:10522   */\n      0x00\n        /* \"#utility.yul\":10518:10519   */\n      dup5\n        /* \"#utility.yul\":10514:10523   */\n      sgt\n        /* \"#utility.yul\":10510:10535   */\n      and\n        /* \"#utility.yul\":10506:10621   */\n      and\n        /* \"#utility.yul\":10503:10644   */\n      iszero\n      tag_229\n      jumpi\n        /* \"#utility.yul\":10624:10642   */\n      tag_230\n      tag_108\n      jump\t// in\n    tag_230:\n        /* \"#utility.yul\":10503:10644   */\n    tag_229:\n        /* \"#utility.yul\":10828:10829   */\n      dup3\n        /* \"#utility.yul\":10760:10826   */\n      0x8000000000000000000000000000000000000000000000000000000000000000\n        /* \"#utility.yul\":10755:10830   */\n      sdiv\n        /* \"#utility.yul\":10752:10753   */\n      dup3\n        /* \"#utility.yul\":10748:10831   */\n      slt\n        /* \"#utility.yul\":10743:10744   */\n      0x00\n        /* \"#utility.yul\":10740:10741   */\n      dup5\n        /* \"#utility.yul\":10736:10745   */\n      sgt\n        /* \"#utility.yul\":10732:10733   */\n      0x00\n        /* \"#utility.yul\":10729:10730   */\n      dup5\n        /* \"#utility.yul\":10725:10734   */\n      slt\n        /* \"#utility.yul\":10721:10746   */\n      and\n        /* \"#utility.yul\":10717:10832   */\n      and\n        /* \"#utility.yul\":10714:10855   */\n      iszero\n      tag_231\n      jumpi\n        /* \"#utility.yul\":10835:10853   */\n      tag_232\n      tag_108\n      jump\t// in\n    tag_232:\n        /* \"#utility.yul\":10714:10855   */\n    tag_231:\n        /* \"#utility.yul\":11038:11039   */\n      dup3\n        /* \"#utility.yul\":10970:11036   */\n      0x7fffffffffffffffffffffffffffffffffffffffffffffffffffffffffffffff\n        /* \"#utility.yul\":10965:11040   */\n      sdiv\n        /* \"#utility.yul\":10962:10963   */\n      dup3\n        /* \"#utility.yul\":10958:11041   */\n      slt\n        /* \"#utility.yul\":10953:10954   */\n      0x00\n        /* \"#utility.yul\":10950:10951   */\n      dup5\n        /* \"#utility.yul\":10946:10955   */\n      slt\n        /* \"#utility.yul\":10942:10943   */\n      0x00\n        /* \"#utility.yul\":10939:10940   */\n      dup5\n        /* \"#utility.yul\":10935:10944   */\n      slt\n        /* \"#utility.yul\":10931:10956   */\n      and\n        /* \"#utility.yul\":10927:11042   */\n      and\n        /* \"#utility.yul\":10924:11065   */\n      iszero\n      tag_233\n      jumpi\n        /* \"#utility.yul\":11045:11063   */\n      tag_234\n      tag_108\n      jump\t// in\n    tag_234:\n        /* \"#utility.yul\":10924:11065   */\n    tag_233:\n        /* \"#utility.yul\":11093:11094   */\n      dup3\n        /* \"#utility.yul\":11090:11091   */\n      dup3\n        /* \"#utility.yul\":11086:11095   */\n      mul\n        /* \"#utility.yul\":11075:11095   */\n      swap1\n      pop\n        /* \"#utility.yul\":10110:11101   */\n      swap3\n      swap2\n      pop\n      pop\n      jump\t// out\n\n    auxdata: 0xa26469706673582212208fbc06a2753c2dd6618fe200b8c0fdd32878b995e1a405f0537ade2cff78e96f64736f6c63430008100033\n}\n",
				"bytecode": {
					"linkReferences": {},
					"object": "60806040526802b5e3af16b188000060005534801561001d57600080fd5b5033600360006101000a81548173ffffffffffffffffffffffffffffffffffffffff021916908373ffffffffffffffffffffffffffffffffffffffff160217905550610d608061006e6000396000f3fe6080604052600436106100555760003560e01c8063098de8201461005a5780633e47d6f31461008557806357ea89b6146100c25780638da5cb5b146100d9578063b60d428814610104578063dc0d3dff1461010e575b600080fd5b34801561006657600080fd5b5061006f61014b565b60405161007c91906106b3565b60405180910390f35b34801561009157600080fd5b506100ac60048036038101906100a79190610731565b610151565b6040516100b991906106b3565b60405180910390f35b3480156100ce57600080fd5b506100d7610169565b005b3480156100e557600080fd5b506100ee6103b5565b6040516100fb919061076d565b60405180910390f35b61010c6103db565b005b34801561011a57600080fd5b50610135600480360381019061013091906107b4565b6104d1565b604051610142919061076d565b60405180910390f35b60005481565b60026020528060005260406000206000915090505481565b600360009054906101000a900473ffffffffffffffffffffffffffffffffffffffff1673ffffffffffffffffffffffffffffffffffffffff163373ffffffffffffffffffffffffffffffffffffffff16146101f9576040517f08c379a00000000000000000000000000000000000000000000000000000000081526004016101f09061083e565b60405180910390fd5b60005b6001805490508110156102a55760006001828154811061021f5761021e61085e565b5b9060005260206000200160009054906101000a900473ffffffffffffffffffffffffffffffffffffffff1690506000600260008373ffffffffffffffffffffffffffffffffffffffff1673ffffffffffffffffffffffffffffffffffffffff1681526020019081526020016000208190555050808061029d906108bc565b9150506101fc565b50600067ffffffffffffffff8111156102c1576102c0610904565b5b6040519080825280602002602001820160405280156102ef5781602001602082028036833780820191505090505b50600190805190602001906103059291906105f3565b5060003373ffffffffffffffffffffffffffffffffffffffff164760405161032c90610964565b60006040518083038185875af1925050503d8060008114610369576040519150601f19603f3d011682016040523d82523d6000602084013e61036e565b606091505b50509050806103b2576040517f08c379a00000000000000000000000000000000000000000000000000000000081526004016103a9906109c5565b60405180910390fd5b50565b600360009054906101000a900473ffffffffffffffffffffffffffffffffffffffff1681565b6000546103e734610510565b1015610428576040517f08c379a000000000000000000000000000000000000000000000000000000000815260040161041f90610a31565b60405180910390fd5b6001339080600181540180825580915050600190039060005260206000200160009091909190916101000a81548173ffffffffffffffffffffffffffffffffffffffff021916908373ffffffffffffffffffffffffffffffffffffffff16021790555034600260003373ffffffffffffffffffffffffffffffffffffffff1673ffffffffffffffffffffffffffffffffffffffff16815260200190815260200160002081905550565b600181815481106104e157600080fd5b906000526020600020016000915054906101000a900473ffffffffffffffffffffffffffffffffffffffff1681565b60008061051b61054a565b90506000670de0b6b3a764000084836105349190610a51565b61053e9190610ada565b90508092505050919050565b600080738a753747a1fa494ec906ce90e9f37563a8af630e905060008173ffffffffffffffffffffffffffffffffffffffff1663feaf968c6040518163ffffffff1660e01b815260040160a060405180830381865afa1580156105b1573d6000803e3d6000fd5b505050506040513d601f19601f820116820180604052508101906105d59190610b98565b5050509150506402540be400816105ec9190610c13565b9250505090565b82805482825590600052602060002090810192821561066c579160200282015b8281111561066b5782518260006101000a81548173ffffffffffffffffffffffffffffffffffffffff021916908373ffffffffffffffffffffffffffffffffffffffff16021790555091602001919060010190610613565b5b509050610679919061067d565b5090565b5b8082111561069657600081600090555060010161067e565b5090565b6000819050919050565b6106ad8161069a565b82525050565b60006020820190506106c860008301846106a4565b92915050565b600080fd5b600073ffffffffffffffffffffffffffffffffffffffff82169050919050565b60006106fe826106d3565b9050919050565b61070e816106f3565b811461071957600080fd5b50565b60008135905061072b81610705565b92915050565b600060208284031215610747576107466106ce565b5b60006107558482850161071c565b91505092915050565b610767816106f3565b82525050565b6000602082019050610782600083018461075e565b92915050565b6107918161069a565b811461079c57600080fd5b50565b6000813590506107ae81610788565b92915050565b6000602082840312156107ca576107c96106ce565b5b60006107d88482850161079f565b91505092915050565b600082825260208201905092915050565b7f53656e646572206973206e6f74206f776e657200000000000000000000000000600082015250565b60006108286013836107e1565b9150610833826107f2565b602082019050919050565b600060208201905081810360008301526108578161081b565b9050919050565b7f4e487b7100000000000000000000000000000000000000000000000000000000600052603260045260246000fd5b7f4e487b7100000000000000000000000000000000000000000000000000000000600052601160045260246000fd5b60006108c78261069a565b91507fffffffffffffffffffffffffffffffffffffffffffffffffffffffffffffffff82036108f9576108f861088d565b5b600182019050919050565b7f4e487b7100000000000000000000000000000000000000000000000000000000600052604160045260246000fd5b600081905092915050565b50565b600061094e600083610933565b91506109598261093e565b600082019050919050565b600061096f82610941565b9150819050919050565b7f43616c6c204661696c6564210000000000000000000000000000000000000000600082015250565b60006109af600c836107e1565b91506109ba82610979565b602082019050919050565b600060208201905081810360008301526109de816109a2565b9050919050565b7f4469646e27742073656e6420656e6f7567682100000000000000000000000000600082015250565b6000610a1b6013836107e1565b9150610a26826109e5565b602082019050919050565b60006020820190508181036000830152610a4a81610a0e565b9050919050565b6000610a5c8261069a565b9150610a678361069a565b9250817fffffffffffffffffffffffffffffffffffffffffffffffffffffffffffffffff0483118215151615610aa057610a9f61088d565b5b828202905092915050565b7f4e487b7100000000000000000000000000000000000000000000000000000000600052601260045260246000fd5b6000610ae58261069a565b9150610af08361069a565b925082610b0057610aff610aab565b5b828204905092915050565b600069ffffffffffffffffffff82169050919050565b610b2a81610b0b565b8114610b3557600080fd5b50565b600081519050610b4781610b21565b92915050565b6000819050919050565b610b6081610b4d565b8114610b6b57600080fd5b50565b600081519050610b7d81610b57565b92915050565b600081519050610b9281610788565b92915050565b600080600080600060a08688031215610bb457610bb36106ce565b5b6000610bc288828901610b38565b9550506020610bd388828901610b6e565b9450506040610be488828901610b83565b9350506060610bf588828901610b83565b9250506080610c0688828901610b38565b9150509295509295909350565b6000610c1e82610b4d565b9150610c2983610b4d565b9250827f7fffffffffffffffffffffffffffffffffffffffffffffffffffffffffffffff0482116000841360008413161615610c6857610c6761088d565b5b817f80000000000000000000000000000000000000000000000000000000000000000583126000841260008413161615610ca557610ca461088d565b5b827f80000000000000000000000000000000000000000000000000000000000000000582126000841360008412161615610ce257610ce161088d565b5b827f7fffffffffffffffffffffffffffffffffffffffffffffffffffffffffffffff0582126000841260008412161615610d1f57610d1e61088d565b5b82820290509291505056fea26469706673582212208fbc06a2753c2dd6618fe200b8c0fdd32878b995e1a405f0537ade2cff78e96f64736f6c63430008100033",
					"opcodes": "PUSH1 0x80 PUSH1 0x40 MSTORE PUSH9 0x2B5E3AF16B1880000 PUSH1 0x0 SSTORE CALLVALUE DUP1 ISZERO PUSH2 0x1D JUMPI PUSH1 0x0 DUP1 REVERT JUMPDEST POP CALLER PUSH1 0x3 PUSH1 0x0 PUSH2 0x100 EXP DUP2 SLOAD DUP2 PUSH20 0xFFFFFFFFFFFFFFFFFFFFFFFFFFFFFFFFFFFFFFFF MUL NOT AND SWAP1 DUP4 PUSH20 0xFFFFFFFFFFFFFFFFFFFFFFFFFFFFFFFFFFFFFFFF AND MUL OR SWAP1 SSTORE POP PUSH2 0xD60 DUP1 PUSH2 0x6E PUSH1 0x0 CODECOPY PUSH1 0x0 RETURN INVALID PUSH1 0x80 PUSH1 0x40 MSTORE PUSH1 0x4 CALLDATASIZE LT PUSH2 0x55 JUMPI PUSH1 0x0 CALLDATALOAD PUSH1 0xE0 SHR DUP1 PUSH4 0x98DE820 EQ PUSH2 0x5A JUMPI DUP1 PUSH4 0x3E47D6F3 EQ PUSH2 0x85 JUMPI DUP1 PUSH4 0x57EA89B6 EQ PUSH2 0xC2 JUMPI DUP1 PUSH4 0x8DA5CB5B EQ PUSH2 0xD9 JUMPI DUP1 PUSH4 0xB60D4288 EQ PUSH2 0x104 JUMPI DUP1 PUSH4 0xDC0D3DFF EQ PUSH2 0x10E JUMPI JUMPDEST PUSH1 0x0 DUP1 REVERT JUMPDEST CALLVALUE DUP1 ISZERO PUSH2 0x66 JUMPI PUSH1 0x0 DUP1 REVERT JUMPDEST POP PUSH2 0x6F PUSH2 0x14B JUMP JUMPDEST PUSH1 0x40 MLOAD PUSH2 0x7C SWAP2 SWAP1 PUSH2 0x6B3 JUMP JUMPDEST PUSH1 0x40 MLOAD DUP1 SWAP2 SUB SWAP1 RETURN JUMPDEST CALLVALUE DUP1 ISZERO PUSH2 0x91 JUMPI PUSH1 0x0 DUP1 REVERT JUMPDEST POP PUSH2 0xAC PUSH1 0x4 DUP1 CALLDATASIZE SUB DUP2 ADD SWAP1 PUSH2 0xA7 SWAP2 SWAP1 PUSH2 0x731 JUMP JUMPDEST PUSH2 0x151 JUMP JUMPDEST PUSH1 0x40 MLOAD PUSH2 0xB9 SWAP2 SWAP1 PUSH2 0x6B3 JUMP JUMPDEST PUSH1 0x40 MLOAD DUP1 SWAP2 SUB SWAP1 RETURN JUMPDEST CALLVALUE DUP1 ISZERO PUSH2 0xCE JUMPI PUSH1 0x0 DUP1 REVERT JUMPDEST POP PUSH2 0xD7 PUSH2 0x169 JUMP JUMPDEST STOP JUMPDEST CALLVALUE DUP1 ISZERO PUSH2 0xE5 JUMPI PUSH1 0x0 DUP1 REVERT JUMPDEST POP PUSH2 0xEE PUSH2 0x3B5 JUMP JUMPDEST PUSH1 0x40 MLOAD PUSH2 0xFB SWAP2 SWAP1 PUSH2 0x76D JUMP JUMPDEST PUSH1 0x40 MLOAD DUP1 SWAP2 SUB SWAP1 RETURN JUMPDEST PUSH2 0x10C PUSH2 0x3DB JUMP JUMPDEST STOP JUMPDEST CALLVALUE DUP1 ISZERO PUSH2 0x11A JUMPI PUSH1 0x0 DUP1 REVERT JUMPDEST POP PUSH2 0x135 PUSH1 0x4 DUP1 CALLDATASIZE SUB DUP2 ADD SWAP1 PUSH2 0x130 SWAP2 SWAP1 PUSH2 0x7B4 JUMP JUMPDEST PUSH2 0x4D1 JUMP JUMPDEST PUSH1 0x40 MLOAD PUSH2 0x142 SWAP2 SWAP1 PUSH2 0x76D JUMP JUMPDEST PUSH1 0x40 MLOAD DUP1 SWAP2 SUB SWAP1 RETURN JUMPDEST PUSH1 0x0 SLOAD DUP2 JUMP JUMPDEST PUSH1 0x2 PUSH1 0x20 MSTORE DUP1 PUSH1 0x0 MSTORE PUSH1 0x40 PUSH1 0x0 KECCAK256 PUSH1 0x0 SWAP2 POP SWAP1 POP SLOAD DUP2 JUMP JUMPDEST PUSH1 0x3 PUSH1 0x0 SWAP1 SLOAD SWAP1 PUSH2 0x100 EXP SWAP1 DIV PUSH20 0xFFFFFFFFFFFFFFFFFFFFFFFFFFFFFFFFFFFFFFFF AND PUSH20 0xFFFFFFFFFFFFFFFFFFFFFFFFFFFFFFFFFFFFFFFF AND CALLER PUSH20 0xFFFFFFFFFFFFFFFFFFFFFFFFFFFFFFFFFFFFFFFF AND EQ PUSH2 0x1F9 JUMPI PUSH1 0x40 MLOAD PUSH32 0x8C379A000000000000000000000000000000000000000000000000000000000 DUP2 MSTORE PUSH1 0x4 ADD PUSH2 0x1F0 SWAP1 PUSH2 0x83E JUMP JUMPDEST PUSH1 0x40 MLOAD DUP1 SWAP2 SUB SWAP1 REVERT JUMPDEST PUSH1 0x0 JUMPDEST PUSH1 0x1 DUP1 SLOAD SWAP1 POP DUP2 LT ISZERO PUSH2 0x2A5 JUMPI PUSH1 0x0 PUSH1 0x1 DUP3 DUP2 SLOAD DUP2 LT PUSH2 0x21F JUMPI PUSH2 0x21E PUSH2 0x85E JUMP JUMPDEST JUMPDEST SWAP1 PUSH1 0x0 MSTORE PUSH1 0x20 PUSH1 0x0 KECCAK256 ADD PUSH1 0x0 SWAP1 SLOAD SWAP1 PUSH2 0x100 EXP SWAP1 DIV PUSH20 0xFFFFFFFFFFFFFFFFFFFFFFFFFFFFFFFFFFFFFFFF AND SWAP1 POP PUSH1 0x0 PUSH1 0x2 PUSH1 0x0 DUP4 PUSH20 0xFFFFFFFFFFFFFFFFFFFFFFFFFFFFFFFFFFFFFFFF AND PUSH20 0xFFFFFFFFFFFFFFFFFFFFFFFFFFFFFFFFFFFFFFFF AND DUP2 MSTORE PUSH1 0x20 ADD SWAP1 DUP2 MSTORE PUSH1 0x20 ADD PUSH1 0x0 KECCAK256 DUP2 SWAP1 SSTORE POP POP DUP1 DUP1 PUSH2 0x29D SWAP1 PUSH2 0x8BC JUMP JUMPDEST SWAP2 POP POP PUSH2 0x1FC JUMP JUMPDEST POP PUSH1 0x0 PUSH8 0xFFFFFFFFFFFFFFFF DUP2 GT ISZERO PUSH2 0x2C1 JUMPI PUSH2 0x2C0 PUSH2 0x904 JUMP JUMPDEST JUMPDEST PUSH1 0x40 MLOAD SWAP1 DUP1 DUP3 MSTORE DUP1 PUSH1 0x20 MUL PUSH1 0x20 ADD DUP3 ADD PUSH1 0x40 MSTORE DUP1 ISZERO PUSH2 0x2EF JUMPI DUP2 PUSH1 0x20 ADD PUSH1 0x20 DUP3 MUL DUP1 CALLDATASIZE DUP4 CALLDATACOPY DUP1 DUP3 ADD SWAP2 POP POP SWAP1 POP JUMPDEST POP PUSH1 0x1 SWAP1 DUP1 MLOAD SWAP1 PUSH1 0x20 ADD SWAP1 PUSH2 0x305 SWAP3 SWAP2 SWAP1 PUSH2 0x5F3 JUMP JUMPDEST POP PUSH1 0x0 CALLER PUSH20 0xFFFFFFFFFFFFFFFFFFFFFFFFFFFFFFFFFFFFFFFF AND SELFBALANCE PUSH1 0x40 MLOAD PUSH2 0x32C SWAP1 PUSH2 0x964 JUMP JUMPDEST PUSH1 0x0 PUSH1 0x40 MLOAD DUP1 DUP4 SUB DUP2 DUP6 DUP8 GAS CALL SWAP3 POP POP POP RETURNDATASIZE DUP1 PUSH1 0x0 DUP2 EQ PUSH2 0x369 JUMPI PUSH1 0x40 MLOAD SWAP2 POP PUSH1 0x1F NOT PUSH1 0x3F RETURNDATASIZE ADD AND DUP3 ADD PUSH1 0x40 MSTORE RETURNDATASIZE DUP3 MSTORE RETURNDATASIZE PUSH1 0x0 PUSH1 0x20 DUP5 ADD RETURNDATACOPY PUSH2 0x36E JUMP JUMPDEST PUSH1 0x60 SWAP2 POP JUMPDEST POP POP SWAP1 POP DUP1 PUSH2 0x3B2 JUMPI PUSH1 0x40 MLOAD PUSH32 0x8C379A000000000000000000000000000000000000000000000000000000000 DUP2 MSTORE PUSH1 0x4 ADD PUSH2 0x3A9 SWAP1 PUSH2 0x9C5 JUMP JUMPDEST PUSH1 0x40 MLOAD DUP1 SWAP2 SUB SWAP1 REVERT JUMPDEST POP JUMP JUMPDEST PUSH1 0x3 PUSH1 0x0 SWAP1 SLOAD SWAP1 PUSH2 0x100 EXP SWAP1 DIV PUSH20 0xFFFFFFFFFFFFFFFFFFFFFFFFFFFFFFFFFFFFFFFF AND DUP2 JUMP JUMPDEST PUSH1 0x0 SLOAD PUSH2 0x3E7 CALLVALUE PUSH2 0x510 JUMP JUMPDEST LT ISZERO PUSH2 0x428 JUMPI PUSH1 0x40 MLOAD PUSH32 0x8C379A000000000000000000000000000000000000000000000000000000000 DUP2 MSTORE PUSH1 0x4 ADD PUSH2 0x41F SWAP1 PUSH2 0xA31 JUMP JUMPDEST PUSH1 0x40 MLOAD DUP1 SWAP2 SUB SWAP1 REVERT JUMPDEST PUSH1 0x1 CALLER SWAP1 DUP1 PUSH1 0x1 DUP2 SLOAD ADD DUP1 DUP3 SSTORE DUP1 SWAP2 POP POP PUSH1 0x1 SWAP1 SUB SWAP1 PUSH1 0x0 MSTORE PUSH1 0x20 PUSH1 0x0 KECCAK256 ADD PUSH1 0x0 SWAP1 SWAP2 SWAP1 SWAP2 SWAP1 SWAP2 PUSH2 0x100 EXP DUP2 SLOAD DUP2 PUSH20 0xFFFFFFFFFFFFFFFFFFFFFFFFFFFFFFFFFFFFFFFF MUL NOT AND SWAP1 DUP4 PUSH20 0xFFFFFFFFFFFFFFFFFFFFFFFFFFFFFFFFFFFFFFFF AND MUL OR SWAP1 SSTORE POP CALLVALUE PUSH1 0x2 PUSH1 0x0 CALLER PUSH20 0xFFFFFFFFFFFFFFFFFFFFFFFFFFFFFFFFFFFFFFFF AND PUSH20 0xFFFFFFFFFFFFFFFFFFFFFFFFFFFFFFFFFFFFFFFF AND DUP2 MSTORE PUSH1 0x20 ADD SWAP1 DUP2 MSTORE PUSH1 0x20 ADD PUSH1 0x0 KECCAK256 DUP2 SWAP1 SSTORE POP JUMP JUMPDEST PUSH1 0x1 DUP2 DUP2 SLOAD DUP2 LT PUSH2 0x4E1 JUMPI PUSH1 0x0 DUP1 REVERT JUMPDEST SWAP1 PUSH1 0x0 MSTORE PUSH1 0x20 PUSH1 0x0 KECCAK256 ADD PUSH1 0x0 SWAP2 POP SLOAD SWAP1 PUSH2 0x100 EXP SWAP1 DIV PUSH20 0xFFFFFFFFFFFFFFFFFFFFFFFFFFFFFFFFFFFFFFFF AND DUP2 JUMP JUMPDEST PUSH1 0x0 DUP1 PUSH2 0x51B PUSH2 0x54A JUMP JUMPDEST SWAP1 POP PUSH1 0x0 PUSH8 0xDE0B6B3A7640000 DUP5 DUP4 PUSH2 0x534 SWAP2 SWAP1 PUSH2 0xA51 JUMP JUMPDEST PUSH2 0x53E SWAP2 SWAP1 PUSH2 0xADA JUMP JUMPDEST SWAP1 POP DUP1 SWAP3 POP POP POP SWAP2 SWAP1 POP JUMP JUMPDEST PUSH1 0x0 DUP1 PUSH20 0x8A753747A1FA494EC906CE90E9F37563A8AF630E SWAP1 POP PUSH1 0x0 DUP2 PUSH20 0xFFFFFFFFFFFFFFFFFFFFFFFFFFFFFFFFFFFFFFFF AND PUSH4 0xFEAF968C PUSH1 0x40 MLOAD DUP2 PUSH4 0xFFFFFFFF AND PUSH1 0xE0 SHL DUP2 MSTORE PUSH1 0x4 ADD PUSH1 0xA0 PUSH1 0x40 MLOAD DUP1 DUP4 SUB DUP2 DUP7 GAS STATICCALL ISZERO DUP1 ISZERO PUSH2 0x5B1 JUMPI RETURNDATASIZE PUSH1 0x0 DUP1 RETURNDATACOPY RETURNDATASIZE PUSH1 0x0 REVERT JUMPDEST POP POP POP POP PUSH1 0x40 MLOAD RETURNDATASIZE PUSH1 0x1F NOT PUSH1 0x1F DUP3 ADD AND DUP3 ADD DUP1 PUSH1 0x40 MSTORE POP DUP2 ADD SWAP1 PUSH2 0x5D5 SWAP2 SWAP1 PUSH2 0xB98 JUMP JUMPDEST POP POP POP SWAP2 POP POP PUSH5 0x2540BE400 DUP2 PUSH2 0x5EC SWAP2 SWAP1 PUSH2 0xC13 JUMP JUMPDEST SWAP3 POP POP POP SWAP1 JUMP JUMPDEST DUP3 DUP1 SLOAD DUP3 DUP3 SSTORE SWAP1 PUSH1 0x0 MSTORE PUSH1 0x20 PUSH1 0x0 KECCAK256 SWAP1 DUP2 ADD SWAP3 DUP3 ISZERO PUSH2 0x66C JUMPI SWAP2 PUSH1 0x20 MUL DUP3 ADD JUMPDEST DUP3 DUP2 GT ISZERO PUSH2 0x66B JUMPI DUP3 MLOAD DUP3 PUSH1 0x0 PUSH2 0x100 EXP DUP2 SLOAD DUP2 PUSH20 0xFFFFFFFFFFFFFFFFFFFFFFFFFFFFFFFFFFFFFFFF MUL NOT AND SWAP1 DUP4 PUSH20 0xFFFFFFFFFFFFFFFFFFFFFFFFFFFFFFFFFFFFFFFF AND MUL OR SWAP1 SSTORE POP SWAP2 PUSH1 0x20 ADD SWAP2 SWAP1 PUSH1 0x1 ADD SWAP1 PUSH2 0x613 JUMP JUMPDEST JUMPDEST POP SWAP1 POP PUSH2 0x679 SWAP2 SWAP1 PUSH2 0x67D JUMP JUMPDEST POP SWAP1 JUMP JUMPDEST JUMPDEST DUP1 DUP3 GT ISZERO PUSH2 0x696 JUMPI PUSH1 0x0 DUP2 PUSH1 0x0 SWAP1 SSTORE POP PUSH1 0x1 ADD PUSH2 0x67E JUMP JUMPDEST POP SWAP1 JUMP JUMPDEST PUSH1 0x0 DUP2 SWAP1 POP SWAP2 SWAP1 POP JUMP JUMPDEST PUSH2 0x6AD DUP2 PUSH2 0x69A JUMP JUMPDEST DUP3 MSTORE POP POP JUMP JUMPDEST PUSH1 0x0 PUSH1 0x20 DUP3 ADD SWAP1 POP PUSH2 0x6C8 PUSH1 0x0 DUP4 ADD DUP5 PUSH2 0x6A4 JUMP JUMPDEST SWAP3 SWAP2 POP POP JUMP JUMPDEST PUSH1 0x0 DUP1 REVERT JUMPDEST PUSH1 0x0 PUSH20 0xFFFFFFFFFFFFFFFFFFFFFFFFFFFFFFFFFFFFFFFF DUP3 AND SWAP1 POP SWAP2 SWAP1 POP JUMP JUMPDEST PUSH1 0x0 PUSH2 0x6FE DUP3 PUSH2 0x6D3 JUMP JUMPDEST SWAP1 POP SWAP2 SWAP1 POP JUMP JUMPDEST PUSH2 0x70E DUP2 PUSH2 0x6F3 JUMP JUMPDEST DUP2 EQ PUSH2 0x719 JUMPI PUSH1 0x0 DUP1 REVERT JUMPDEST POP JUMP JUMPDEST PUSH1 0x0 DUP2 CALLDATALOAD SWAP1 POP PUSH2 0x72B DUP2 PUSH2 0x705 JUMP JUMPDEST SWAP3 SWAP2 POP POP JUMP JUMPDEST PUSH1 0x0 PUSH1 0x20 DUP3 DUP5 SUB SLT ISZERO PUSH2 0x747 JUMPI PUSH2 0x746 PUSH2 0x6CE JUMP JUMPDEST JUMPDEST PUSH1 0x0 PUSH2 0x755 DUP5 DUP3 DUP6 ADD PUSH2 0x71C JUMP JUMPDEST SWAP2 POP POP SWAP3 SWAP2 POP POP JUMP JUMPDEST PUSH2 0x767 DUP2 PUSH2 0x6F3 JUMP JUMPDEST DUP3 MSTORE POP POP JUMP JUMPDEST PUSH1 0x0 PUSH1 0x20 DUP3 ADD SWAP1 POP PUSH2 0x782 PUSH1 0x0 DUP4 ADD DUP5 PUSH2 0x75E JUMP JUMPDEST SWAP3 SWAP2 POP POP JUMP JUMPDEST PUSH2 0x791 DUP2 PUSH2 0x69A JUMP JUMPDEST DUP2 EQ PUSH2 0x79C JUMPI PUSH1 0x0 DUP1 REVERT JUMPDEST POP JUMP JUMPDEST PUSH1 0x0 DUP2 CALLDATALOAD SWAP1 POP PUSH2 0x7AE DUP2 PUSH2 0x788 JUMP JUMPDEST SWAP3 SWAP2 POP POP JUMP JUMPDEST PUSH1 0x0 PUSH1 0x20 DUP3 DUP5 SUB SLT ISZERO PUSH2 0x7CA JUMPI PUSH2 0x7C9 PUSH2 0x6CE JUMP JUMPDEST JUMPDEST PUSH1 0x0 PUSH2 0x7D8 DUP5 DUP3 DUP6 ADD PUSH2 0x79F JUMP JUMPDEST SWAP2 POP POP SWAP3 SWAP2 POP POP JUMP JUMPDEST PUSH1 0x0 DUP3 DUP3 MSTORE PUSH1 0x20 DUP3 ADD SWAP1 POP SWAP3 SWAP2 POP POP JUMP JUMPDEST PUSH32 0x53656E646572206973206E6F74206F776E657200000000000000000000000000 PUSH1 0x0 DUP3 ADD MSTORE POP JUMP JUMPDEST PUSH1 0x0 PUSH2 0x828 PUSH1 0x13 DUP4 PUSH2 0x7E1 JUMP JUMPDEST SWAP2 POP PUSH2 0x833 DUP3 PUSH2 0x7F2 JUMP JUMPDEST PUSH1 0x20 DUP3 ADD SWAP1 POP SWAP2 SWAP1 POP JUMP JUMPDEST PUSH1 0x0 PUSH1 0x20 DUP3 ADD SWAP1 POP DUP2 DUP2 SUB PUSH1 0x0 DUP4 ADD MSTORE PUSH2 0x857 DUP2 PUSH2 0x81B JUMP JUMPDEST SWAP1 POP SWAP2 SWAP1 POP JUMP JUMPDEST PUSH32 0x4E487B7100000000000000000000000000000000000000000000000000000000 PUSH1 0x0 MSTORE PUSH1 0x32 PUSH1 0x4 MSTORE PUSH1 0x24 PUSH1 0x0 REVERT JUMPDEST PUSH32 0x4E487B7100000000000000000000000000000000000000000000000000000000 PUSH1 0x0 MSTORE PUSH1 0x11 PUSH1 0x4 MSTORE PUSH1 0x24 PUSH1 0x0 REVERT JUMPDEST PUSH1 0x0 PUSH2 0x8C7 DUP3 PUSH2 0x69A JUMP JUMPDEST SWAP2 POP PUSH32 0xFFFFFFFFFFFFFFFFFFFFFFFFFFFFFFFFFFFFFFFFFFFFFFFFFFFFFFFFFFFFFFFF DUP3 SUB PUSH2 0x8F9 JUMPI PUSH2 0x8F8 PUSH2 0x88D JUMP JUMPDEST JUMPDEST PUSH1 0x1 DUP3 ADD SWAP1 POP SWAP2 SWAP1 POP JUMP JUMPDEST PUSH32 0x4E487B7100000000000000000000000000000000000000000000000000000000 PUSH1 0x0 MSTORE PUSH1 0x41 PUSH1 0x4 MSTORE PUSH1 0x24 PUSH1 0x0 REVERT JUMPDEST PUSH1 0x0 DUP2 SWAP1 POP SWAP3 SWAP2 POP POP JUMP JUMPDEST POP JUMP JUMPDEST PUSH1 0x0 PUSH2 0x94E PUSH1 0x0 DUP4 PUSH2 0x933 JUMP JUMPDEST SWAP2 POP PUSH2 0x959 DUP3 PUSH2 0x93E JUMP JUMPDEST PUSH1 0x0 DUP3 ADD SWAP1 POP SWAP2 SWAP1 POP JUMP JUMPDEST PUSH1 0x0 PUSH2 0x96F DUP3 PUSH2 0x941 JUMP JUMPDEST SWAP2 POP DUP2 SWAP1 POP SWAP2 SWAP1 POP JUMP JUMPDEST PUSH32 0x43616C6C204661696C6564210000000000000000000000000000000000000000 PUSH1 0x0 DUP3 ADD MSTORE POP JUMP JUMPDEST PUSH1 0x0 PUSH2 0x9AF PUSH1 0xC DUP4 PUSH2 0x7E1 JUMP JUMPDEST SWAP2 POP PUSH2 0x9BA DUP3 PUSH2 0x979 JUMP JUMPDEST PUSH1 0x20 DUP3 ADD SWAP1 POP SWAP2 SWAP1 POP JUMP JUMPDEST PUSH1 0x0 PUSH1 0x20 DUP3 ADD SWAP1 POP DUP2 DUP2 SUB PUSH1 0x0 DUP4 ADD MSTORE PUSH2 0x9DE DUP2 PUSH2 0x9A2 JUMP JUMPDEST SWAP1 POP SWAP2 SWAP1 POP JUMP JUMPDEST PUSH32 0x4469646E27742073656E6420656E6F7567682100000000000000000000000000 PUSH1 0x0 DUP3 ADD MSTORE POP JUMP JUMPDEST PUSH1 0x0 PUSH2 0xA1B PUSH1 0x13 DUP4 PUSH2 0x7E1 JUMP JUMPDEST SWAP2 POP PUSH2 0xA26 DUP3 PUSH2 0x9E5 JUMP JUMPDEST PUSH1 0x20 DUP3 ADD SWAP1 POP SWAP2 SWAP1 POP JUMP JUMPDEST PUSH1 0x0 PUSH1 0x20 DUP3 ADD SWAP1 POP DUP2 DUP2 SUB PUSH1 0x0 DUP4 ADD MSTORE PUSH2 0xA4A DUP2 PUSH2 0xA0E JUMP JUMPDEST SWAP1 POP SWAP2 SWAP1 POP JUMP JUMPDEST PUSH1 0x0 PUSH2 0xA5C DUP3 PUSH2 0x69A JUMP JUMPDEST SWAP2 POP PUSH2 0xA67 DUP4 PUSH2 0x69A JUMP JUMPDEST SWAP3 POP DUP2 PUSH32 0xFFFFFFFFFFFFFFFFFFFFFFFFFFFFFFFFFFFFFFFFFFFFFFFFFFFFFFFFFFFFFFFF DIV DUP4 GT DUP3 ISZERO ISZERO AND ISZERO PUSH2 0xAA0 JUMPI PUSH2 0xA9F PUSH2 0x88D JUMP JUMPDEST JUMPDEST DUP3 DUP3 MUL SWAP1 POP SWAP3 SWAP2 POP POP JUMP JUMPDEST PUSH32 0x4E487B7100000000000000000000000000000000000000000000000000000000 PUSH1 0x0 MSTORE PUSH1 0x12 PUSH1 0x4 MSTORE PUSH1 0x24 PUSH1 0x0 REVERT JUMPDEST PUSH1 0x0 PUSH2 0xAE5 DUP3 PUSH2 0x69A JUMP JUMPDEST SWAP2 POP PUSH2 0xAF0 DUP4 PUSH2 0x69A JUMP JUMPDEST SWAP3 POP DUP3 PUSH2 0xB00 JUMPI PUSH2 0xAFF PUSH2 0xAAB JUMP JUMPDEST JUMPDEST DUP3 DUP3 DIV SWAP1 POP SWAP3 SWAP2 POP POP JUMP JUMPDEST PUSH1 0x0 PUSH10 0xFFFFFFFFFFFFFFFFFFFF DUP3 AND SWAP1 POP SWAP2 SWAP1 POP JUMP JUMPDEST PUSH2 0xB2A DUP2 PUSH2 0xB0B JUMP JUMPDEST DUP2 EQ PUSH2 0xB35 JUMPI PUSH1 0x0 DUP1 REVERT JUMPDEST POP JUMP JUMPDEST PUSH1 0x0 DUP2 MLOAD SWAP1 POP PUSH2 0xB47 DUP2 PUSH2 0xB21 JUMP JUMPDEST SWAP3 SWAP2 POP POP JUMP JUMPDEST PUSH1 0x0 DUP2 SWAP1 POP SWAP2 SWAP1 POP JUMP JUMPDEST PUSH2 0xB60 DUP2 PUSH2 0xB4D JUMP JUMPDEST DUP2 EQ PUSH2 0xB6B JUMPI PUSH1 0x0 DUP1 REVERT JUMPDEST POP JUMP JUMPDEST PUSH1 0x0 DUP2 MLOAD SWAP1 POP PUSH2 0xB7D DUP2 PUSH2 0xB57 JUMP JUMPDEST SWAP3 SWAP2 POP POP JUMP JUMPDEST PUSH1 0x0 DUP2 MLOAD SWAP1 POP PUSH2 0xB92 DUP2 PUSH2 0x788 JUMP JUMPDEST SWAP3 SWAP2 POP POP JUMP JUMPDEST PUSH1 0x0 DUP1 PUSH1 0x0 DUP1 PUSH1 0x0 PUSH1 0xA0 DUP7 DUP9 SUB SLT ISZERO PUSH2 0xBB4 JUMPI PUSH2 0xBB3 PUSH2 0x6CE JUMP JUMPDEST JUMPDEST PUSH1 0x0 PUSH2 0xBC2 DUP9 DUP3 DUP10 ADD PUSH2 0xB38 JUMP JUMPDEST SWAP6 POP POP PUSH1 0x20 PUSH2 0xBD3 DUP9 DUP3 DUP10 ADD PUSH2 0xB6E JUMP JUMPDEST SWAP5 POP POP PUSH1 0x40 PUSH2 0xBE4 DUP9 DUP3 DUP10 ADD PUSH2 0xB83 JUMP JUMPDEST SWAP4 POP POP PUSH1 0x60 PUSH2 0xBF5 DUP9 DUP3 DUP10 ADD PUSH2 0xB83 JUMP JUMPDEST SWAP3 POP POP PUSH1 0x80 PUSH2 0xC06 DUP9 DUP3 DUP10 ADD PUSH2 0xB38 JUMP JUMPDEST SWAP2 POP POP SWAP3 SWAP6 POP SWAP3 SWAP6 SWAP1 SWAP4 POP JUMP JUMPDEST PUSH1 0x0 PUSH2 0xC1E DUP3 PUSH2 0xB4D JUMP JUMPDEST SWAP2 POP PUSH2 0xC29 DUP4 PUSH2 0xB4D JUMP JUMPDEST SWAP3 POP DUP3 PUSH32 0x7FFFFFFFFFFFFFFFFFFFFFFFFFFFFFFFFFFFFFFFFFFFFFFFFFFFFFFFFFFFFFFF DIV DUP3 GT PUSH1 0x0 DUP5 SGT PUSH1 0x0 DUP5 SGT AND AND ISZERO PUSH2 0xC68 JUMPI PUSH2 0xC67 PUSH2 0x88D JUMP JUMPDEST JUMPDEST DUP2 PUSH32 0x8000000000000000000000000000000000000000000000000000000000000000 SDIV DUP4 SLT PUSH1 0x0 DUP5 SLT PUSH1 0x0 DUP5 SGT AND AND ISZERO PUSH2 0xCA5 JUMPI PUSH2 0xCA4 PUSH2 0x88D JUMP JUMPDEST JUMPDEST DUP3 PUSH32 0x8000000000000000000000000000000000000000000000000000000000000000 SDIV DUP3 SLT PUSH1 0x0 DUP5 SGT PUSH1 0x0 DUP5 SLT AND AND ISZERO PUSH2 0xCE2 JUMPI PUSH2 0xCE1 PUSH2 0x88D JUMP JUMPDEST JUMPDEST DUP3 PUSH32 0x7FFFFFFFFFFFFFFFFFFFFFFFFFFFFFFFFFFFFFFFFFFFFFFFFFFFFFFFFFFFFFFF SDIV DUP3 SLT PUSH1 0x0 DUP5 SLT PUSH1 0x0 DUP5 SLT AND AND ISZERO PUSH2 0xD1F JUMPI PUSH2 0xD1E PUSH2 0x88D JUMP JUMPDEST JUMPDEST DUP3 DUP3 MUL SWAP1 POP SWAP3 SWAP2 POP POP JUMP INVALID LOG2 PUSH5 0x6970667358 0x22 SLT KECCAK256 DUP16 0xBC MOD LOG2 PUSH22 0x3C2DD6618FE200B8C0FDD32878B995E1A405F0537ADE 0x2C SELFDESTRUCT PUSH25 0xE96F64736F6C63430008100033000000000000000000000000 "
				},
				"gasEstimates": {
					"creation": {
						"codeDepositCost": "684800",
						"executionCost": "47087",
						"totalCost": "731887"
					},
					"external": {
						"Withdraw()": "infinite",
						"addressToAmountFunded(address)": "2814",
						"fund()": "infinite",
						"funders(uint256)": "5044",
						"minimumUsd()": "2407",
						"owner()": "2558"
					}
				},
				"methodIdentifiers": {
					"Withdraw()": "57ea89b6",
					"addressToAmountFunded(address)": "3e47d6f3",
					"fund()": "b60d4288",
					"funders(uint256)": "dc0d3dff",
					"minimumUsd()": "098de820",
					"owner()": "8da5cb5b"
				}
			},
			"storageLayout": {
				"storage": [
					{
						"astId": 56,
						"contract": "contracts/FundMe.sol:FundMe",
						"label": "minimumUsd",
						"offset": 0,
						"slot": "0",
						"type": "t_uint256"
					},
					{
						"astId": 59,
						"contract": "contracts/FundMe.sol:FundMe",
						"label": "funders",
						"offset": 0,
						"slot": "1",
						"type": "t_array(t_address)dyn_storage"
					},
					{
						"astId": 63,
						"contract": "contracts/FundMe.sol:FundMe",
						"label": "addressToAmountFunded",
						"offset": 0,
						"slot": "2",
						"type": "t_mapping(t_address,t_uint256)"
					},
					{
						"astId": 65,
						"contract": "contracts/FundMe.sol:FundMe",
						"label": "owner",
						"offset": 0,
						"slot": "3",
						"type": "t_address"
					}
				],
				"types": {
					"t_address": {
						"encoding": "inplace",
						"label": "address",
						"numberOfBytes": "20"
					},
					"t_array(t_address)dyn_storage": {
						"base": "t_address",
						"encoding": "dynamic_array",
						"label": "address[]",
						"numberOfBytes": "32"
					},
					"t_mapping(t_address,t_uint256)": {
						"encoding": "mapping",
						"key": "t_address",
						"label": "mapping(address => uint256)",
						"numberOfBytes": "32",
						"value": "t_uint256"
					},
					"t_uint256": {
						"encoding": "inplace",
						"label": "uint256",
						"numberOfBytes": "32"
					}
				}
			},
			"userdoc": {
				"kind": "user",
				"methods": {},
				"version": 1
			}
		}
	}
}