{
	"data": {
		"bytecode": {
			"linkReferences": {},
			"object": "608060405234801561001057600080fd5b5060c78061001f6000396000f3fe608060405260043610601f5760003560e01c80636537214714603557602c565b36602c5760016000819055005b60026000819055005b348015604057600080fd5b506047605b565b604051605291906078565b60405180910390f35b60005481565b6000819050919050565b6072816061565b82525050565b6000602082019050608b6000830184606b565b9291505056fea26469706673582212208c31b2910615f21e33092ef35cc19bdf2ac77409488d98ad8fca94f81279b48e64736f6c63430008100033",
			"opcodes": "PUSH1 0x80 PUSH1 0x40 MSTORE CALLVALUE DUP1 ISZERO PUSH2 0x10 JUMPI PUSH1 0x0 DUP1 REVERT JUMPDEST POP PUSH1 0xC7 DUP1 PUSH2 0x1F PUSH1 0x0 CODECOPY PUSH1 0x0 RETURN INVALID PUSH1 0x80 PUSH1 0x40 MSTORE PUSH1 0x4 CALLDATASIZE LT PUSH1 0x1F JUMPI PUSH1 0x0 CALLDATALOAD PUSH1 0xE0 SHR DUP1 PUSH4 0x65372147 EQ PUSH1 0x35 JUMPI PUSH1 0x2C JUMP JUMPDEST CALLDATASIZE PUSH1 0x2C JUMPI PUSH1 0x1 PUSH1 0x0 DUP2 SWAP1 SSTORE STOP JUMPDEST PUSH1 0x2 PUSH1 0x0 DUP2 SWAP1 SSTORE STOP JUMPDEST CALLVALUE DUP1 ISZERO PUSH1 0x40 JUMPI PUSH1 0x0 DUP1 REVERT JUMPDEST POP PUSH1 0x47 PUSH1 0x5B JUMP JUMPDEST PUSH1 0x40 MLOAD PUSH1 0x52 SWAP2 SWAP1 PUSH1 0x78 JUMP JUMPDEST PUSH1 0x40 MLOAD DUP1 SWAP2 SUB SWAP1 RETURN JUMPDEST PUSH1 0x0 SLOAD DUP2 JUMP JUMPDEST PUSH1 0x0 DUP2 SWAP1 POP SWAP2 SWAP1 POP JUMP JUMPDEST PUSH1 0x72 DUP2 PUSH1 0x61 JUMP JUMPDEST DUP3 MSTORE POP POP JUMP JUMPDEST PUSH1 0x0 PUSH1 0x20 DUP3 ADD SWAP1 POP PUSH1 0x8B PUSH1 0x0 DUP4 ADD DUP5 PUSH1 0x6B JUMP JUMPDEST SWAP3 SWAP2 POP POP JUMP INVALID LOG2 PUSH5 0x6970667358 0x22 SLT KECCAK256 DUP13 BALANCE 0xB2 SWAP2 MOD ISZERO CALLCODE 0x1E CALLER MULMOD 0x2E RETURN 0x5C 0xC1 SWAP12 0xDF 0x2A 0xC7 PUSH21 0x9488D98AD8FCA94F81279B48E64736F6C63430008 LT STOP CALLER "
		},
		"gasEstimates": {
			"creation": {
				"codeDepositCost": "39800",
				"executionCost": "93",
				"totalCost": "39893"
			},
			"external": {
				"": "22197",
				"result()": "2407"
			}
		},
		"methodIdentifiers": {
			"result()": "65372147"
		}
	},
	"abi": [
		{
			"stateMutability": "payable",
			"type": "fallback"
		},
		{
			"inputs": [],
			"name": "result",
			"outputs": [
				{
					"internalType": "uint256",
					"name": "",
					"type": "uint256"
				}
			],
			"stateMutability": "view",
			"type": "function"
		},
		{
			"stateMutability": "payable",
			"type": "receive"
		}
	]
}